:020000040800F2
:200000000000082035D100080D0800081108000815080008190800081D08000800000000F1
:20002000000000000000000000000000210800082508000800000000290800083174000874
:2000400031D1000831D1000831D1000831D1000831D1000831D1000831D1000831D1000850
:2000600031D1000831D1000831D10008116F0008F56E000831D1000831D1000831D1000851
:2000800031D100082D6F000831D1000831D1000831D1000831D1000831D1000831D1000876
:2000A00031D100082970000831D1000831D100087563010831D1000831D10008656F0008B0
:2000C000816F00089D6F0008B96F0008457000086170000831D1000831D1000831D1000830
:2000E00031D1000831D1000831D10008ED700008097100082571000831D1000831D1000849
:2001000031D1000831D1000831D100087D70000831D1000831D100080D70000831D1000829
:20012000496F000831D1000831D1000831D1000831D10008095A000831D1000831D1000858
:2001400031D1000831D1000831D1000831D1000831D1000831D1000831D1000831D100084F
:2001600031D1000831D1000831D1000831D1000831D1000831D1000831D1000831D100082F
:2001800031D1000831D1000831D10008D96E000899700008B5700008D170000831D1000861
:2001A00031D1000831D1000831D1000831D1000831D1000831D1000831D10008D56F0008AD
:2001C000F16F000831D100080000000031D1000831D1000831D1000831D1000831D100087B
:2001E00031D1000831D1000831D1000831D1000831D1000831D1000825000000FFFFFFFFA2
:2002000053B94AB9002908BF00281CBF4FF0FF314FF0FF3000F00CB8ADF1080C6DE904CE71
:2002200016F086FADDF804E0DDE9022304B07047704700BF000000000000000000000000B3
:2002400001F0FF01102A2BDB10F0070F08D010F8013B013A8B422DD010F0070F42B3F6D164
:20026000F0B441EA012141EA014122F007047FF000070023F0E80256083C85EA010586EA11
:20028000010685FA47F5A3FA87F586FA47F6A5FA87F68EB9EED1F0BC01F0FF0102F007020C
:2002A00032B110F8013B013A83EA010313B1F8D10020704701387047002D06BF354603386F
:2002C000073815F0010F07D1013015F4807F02BF013015F4C03F0130F0BC0138704700BF33
:2002E000034613F8012B002AFBD1181A013870470348044B834202D0034B03B1184770471D
:20030000FC000020FC000020000000000548064B1B1AD90F01EBA301491002D0034B03B12D
:2003200018477047FC000020FC0000200000000010B5064C237843B9FFF7DAFF044B13B1DF
:200340000448AFF300800123237010BD0001002000000000FC01000808B5054B1BB105495E
:200360000548AFF30080BDE80840FFF7CFBF00BF0000000004010020FC010008704700BF3E
:2003800038B5084CA4F19005183C234653F8080B984203D0A168013115F0FDFFAC42F3D13C
:2003A00038BD00BFAC010020C0E9012301230160002180F82C30009B8162C360019B0361D4
:2003C000029BDDE903124361059BC0E906120362704700BF2DE9F04FD0F800808CB291B0A9
:2003E0000546D8F80030092C0E461B68029340F29280632C6CD9B4F57A7FC0F0888042F26B
:200400000F739C428BBF4FF004094FF00309052104210DF1100B06AF2D22DFF81CA1584601
:20042000049716F062F809F1FF32049B4FF064093E4842F20F7E1A44CDF80C80AAFB04C1EB
:20044000A4464909F44509FB11480C4630F8181022F80219F2D8BCF57A7FDDF80C8042D20A
:200460003034E4B21C7000220A23584611460DF1300A00932E4B16F093F88146CDF828A089
:20048000044659F8083B4B453AD00A9383680C936368029A0B930023C4F8009063602372F1
:2004A000244B9A4226D10A98504503D00C99013115F071FF0498B84203D00699013115F065
:2004C0006AFF0123AE6285F82C3011B0BDE8F08F0DF1100B06AF2D2202215846049716F042
:2004E00004F8049B114800EB440210F8144052785A70B7E740460AAA0221029B9847D2E7B7
:20050000426849465046013216F097FDC0E74FF0020903217DE70DF1100B06AF2D22012187
:200520005846049715F0E1FF049B99E7747B0108087B01087D0300081F85EB5110B5044683
:2005400000690022036811461B68984728B120460321BDE81040FFF73DBF20460621BDE870
:200560001040FFF737BF00BF70B5C56804462B6828461A685E68904701462846B0470246D0
:200580002069012105682B68984728B120460421BDE87040FFF71EBF20460721BDE8704062
:2005A000FFF718BF38B5044621B1406803681B6898476062206A03689B689847012810D04E
:2005C0006068002341F2883204F1240105686D68A84700B938BD20460521BDE83840FFF7AB
:2005E000F9BE20460821BDE83840FFF7F3BE00BF10B5044640690122036811461B68984733
:2006000028B120460521BDE81040FFF7E3BE20460921BDE81040FFF7DDBE00BF70B5C568C2
:2006200004462B6828461A685E68904701462846B04702466069012105682B68984728B1B9
:2006400020460521BDE87040FFF7C4BE20460921BDE87040FFF7BEBE38B50446006A0368DE
:200660009B68984750B90546A06803685B69984729462046BDE83840FFF7ACBE38BD00BF28
:200680000022836A90F82C1010B5044680F82C20092B0CD8DFE803F00C111C2024282E32DD
:2006A0003605006A03689B689847012834D010BD0121BDE81040FFF78DBEC06903681B68DF
:2006C000984718B320460221BDE81040FFF782BEBDE81040FFF732BFBDE81040FFF744BFF2
:2006E000BDE81040FFF75EBF80690368BDE810401B681847BDE81040FFF77ABFBDE81040AE
:20070000FFF78CBFBDE81040FFF7A6BF20460921BDE81040FFF75EBE20460821BDE810402D
:20072000FFF758BEFFF7ACBFF0B500F1080783B0076031B3044608460E46FFF7D1FD0F2842
:20074000054601900CD8012807D1337823720023204665607B5503B0F0BD0028F7D008E043
:20076000002201A9204615F043FE019B07462060A3602A463846314616F05FFC019D2768A2
:20078000E5E7014815F01DFE147B010810B5164C86B016496A462046FFF7C6FF01AA1449F7
:2007A00004F11800FFF7C0FF02AA124904F13000FFF7BAFF03AA104904F14800FFF7B4FFB0
:2007C00004AA0E4904F16000FFF7AEFF05AA0C4904F17800FFF7A8FF0A4A0B49002006B090
:2007E000BDE8104015F0D2BD1C010020487B01084C7B0108547B01085C7B0108647B0108F7
:200800006C7B01080000002081030008704700BFFEE700BFFEE700BFFEE700BFFEE700BF36
:20082000704700BF704700BF704700BF38B5084CA4F19005183C234653F8080B984203D023
:20084000A168013115F0A7FDAC42F3D138BD00BF3C02002070B5044600250E466422002161
:2008600016F021FB3222294604F16600A4F8645016F019FB2046C4E9265670BD0023C0F837
:200880009830A0F8643070472DE9F0410546134CD0F8980004402243C5F89820DBB1013B76
:2008A0004C1EC1F1010711FA83F603E0B44212D0D5F89820D5F89C0007EB040E002114F8B6
:2008C000013FD0F800C07244DCF80880C0470028ECD1BDE8F0810120BDE8F0810000FFFF07
:2008E000002B4FD04FF0000C70B56046541E654609E0092A18D81543421C0D5490B20CF119
:20090000010C63450FD014F801EF1CF00106AEF13002D2B2EDD1092A11D80CF1010C1201E8
:200920006345D5B2EFD170BDAEF16102052A11D8AEF1570E45EA0E0E5FFA8EF5DCE7AEF1F4
:200940006102052A11D8AEF1570E4FEA0E1E5FFA8EF5D4E7AEF14102052ACDD8AEF1370E82
:2009600045EA0E0E5FFA8EF5C6E7AEF14102052A06D8AEF1370E4FEA0E1E5FFA8EF5BEE7EA
:200980003546BCE718467047B1F801204FF000034FEA122C6CF3070391F803C062F30F2365
:2009A0009AB2A1F80130BCF1050F22D8DFE80CF01D1821210323B1F804C04FF00003B0F8AF
:2009C000982000B54FEA1C2E6EF307036CF30F2342EA03428B80C0F8982001205DF804FBCA
:2009E000D0F89C0003685B68184711F8043BFFF74BBF002070470120704700BF62B370B516
:200A000005460C468E18B5F8643014F8012B632B01D9002070BD0D2A0ED00A2A03F1010126
:200A200008D03A2A02D0A5F86410EA54B442EAD1012070BD0D2AF9D105F166012A4628461E
:200A4000FFF74EFF02462846FFF79EFF0023A5F864300028EAD1DCE70120704710B5164C11
:200A600086B016496A462046FFF75EFE01AA144904F11800FFF758FE02AA124904F13000EC
:200A8000FFF752FE03AA104904F14800FFF74CFE04AA0E4904F16000FFF746FE05AA0C49F5
:200AA00004F17800FFF740FE0A4A0B49002006B0BDE8104015F06ABCAC010020487B01085E
:200AC0004C7B0108547B01085C7B0108647B01086C7B0108000000202D080008704700BFE3
:200AE00008B5054B186803681B689847034B1868FFF7C4FE012008BDA00200204C02002000
:200B000000680968128830B4D0E90043856813F0010F05EB630004D04FEA630C55F80C302A
:200B20001C59234630BC1847012A02D1016000207047002AFBD10260F9E700BF012A38B547
:200B4000044603D10B680360002038BD022A0CD0032A03D0002AF7D10260F5E700680028C4
:200B6000F2D00C2115F017FCEEE70D680C2015F014FC034695E80700236083E80700E3E757
:200B8000012A02D1016000207047002AFBD10260F9E700BF38B5084CA4F19005183C234600
:200BA00053F8080B984203D0A168013115F0F3FBAC42F3D138BD00BF58030020836810B56B
:200BC000044613B1032201469847204610BD00BF00B583B0684605F053FC01A801F0A6FCB4
:200BE000684605F0D7FD01A801F0FCFC03B05DF804FB00BF08B50CF037F90BF005FF194BDA
:200C000018600BF0D1FE184B18600BF0B5FE174B18600CF03FF8164B18600BF005FF154BC4
:200C200018600BF081FF144B18600BF0CDFE134B18600BF09FFF124B18600BF0CDFF114BBD
:200C400018600BF0F1FF104B18600BF0FFFE0F4B18600BF009FE0E4B18600CF0B5F80D4BC0
:200C6000186008BDBC020020C0020020980200209C020020B8020020B4020020C402002069
:200C8000B0020020AC020020A8020020A4020020A0020020940200202DE980489BB0DFF8AC
:200CA00080B3FFF795FF0DF15009FFF7A3FF12AABC494846FFF738FD022148460BF0B0FDB5
:200CC00003464846069315F0B5FB12AAB6494846FFF72AFD022148460BF0A2FD80464846EA
:200CE00015F0A8FB12AAB1494846FFF71DFD022148460BF095FD0790484615F09BFB12AA3E
:200D0000AB494846FFF710FD002148460BF088FD0890484615F08EFB12AAA6494846FFF73C
:200D200003FD022148460BF07BFD0990484615F081FB12AAA0494846FFF7F6FC022148461B
:200D40000BF06EFD0646484615F074FBC02015F024FB9A4A0446106803681B689847014621
:200D6000204600F0B3FA40F21C40CBF8004015F014FB934A0446934BDBF8000015681F68EF
:200D800003680A951B6898478246DBF800008E4D0368DB699847324639460A9B0CAF8B4EB3
:200DA000CDE900A020464FF0000A00F023FB884B20461C6000F022FCDBF8000000F0D6FACA
:200DC000DBF80000834C43680430DB689847DBF80010206038464B6804317F4C5B69984739
:200DE000BDF83430AB800C982860082015F0D5FA074600F0D7FF794B95E80300754D1F60EF
:200E00002A6833680F921A6810901846ADF844105368984710ABC4F80EA06082704F93E8B0
:200E200003000F9B606043F614502360FF232181C4F80A3015F0B1FA0999054602F006FADC
:200E400043F250103D6015F0A8FA0094424633680546644E01933B68634F316804F034FA61
:200E60003868624C036825609B689847534A099013685F4E1A6818460B93116892685D4D59
:200E80000A9288470B9B01460A9A18465A4F90475A49099B08724FF44A604B602523DFF800
:200EA00084810B6015F079FA079B4C490293DBF8003083460A6804335049039204932368B9
:200EC000444A00934E4B019341F6A433126800F0EBFBA020C6F800B015F05FFA494B83467D
:200EE0001968FFF7B7FC4848C0F800B0302015F054FA83465146302215F0D5FF0DF1480C50
:200F0000424B434ACBF80830424BC2F800B0CBF80C309BE80300CDE912AACDE916AA89E8E7
:200F200003009CE803008BE803004846FFF746FE3548374A03680C20CDF850A0D2F800B025
:200F40000793C9E901AACDF85CA015F026FA079B0DF1480E304A83600BF110031490C0F8F6
:200F600004A00260DFF8C0C02C4A99E803008EE8030093E8030089E803009EE8030083E8BB
:200F80000300DBF8183048461693DBF81C30CBF818C01793CBF81C20FFF710FE1C4ACDF86A
:200FA00050A043E0407C0108507C0108607C0108787C0108847C0108887C0108B4020020B6
:200FC000980200209C020020800200209402002048020020880200206C020020400200203D
:200FE00090020020C0020020A40200205C02002058020020500200208C02002060020020FD
:2010000004000020A00200204C020020810B000854020020E10A0008FD090008010B00085D
:2010200044020020C40200203D0B00081368C9F804A003F1200EDFF81CC13A4A9EE8030051
:20104000CDE912AA0DF1480A89E803009AE803008EE80300996A48461691D96AC3F828C03E
:201060001791DA62FFF7AAFD40F6344015F095F908992D4B8146009119682C4B2C4A1B6850
:201080000193236800F0ECFE3020C5F8009015F084F928498146284A0B680699049313686A
:2010A000224A0093254B12681B680393244B1B680293244B1B6801932B680593224B1B6806
:2010C000FFF772F90420C7F8009015F066F9814600F070F91D4BC3F800901D4B18680368B2
:2010E000DB689847206804F01DF9184B3068196800F032FB286803681B689847206804F0CA
:20110000C5FB306800F0DCFC286803685B6898473868FFF707FBD8F8000003681B689847DD
:20112000ECE700BFDD0A000854020020C002002088020020A4020020B4020020A8020020C6
:20114000AC020020B0020020B80200203C020020BC020020290B000810B5164C86B01649E1
:201160006A462046FFF7E0FA01AA144904F11800FFF7DAFA02AA124904F13000FFF7D4FABA
:2011800003AA104904F14800FFF7CEFA04AA0E4904F16000FFF7C8FA05AA0C4904F17800CB
:2011A000FFF7C2FA0A4A0B49002006B0BDE8104015F0ECB8C8020020487B01084C7B0108DB
:2011C000547B01085C7B0108647B01086C7B010800000020950B000843681961704700BF1C
:2011E00043681869704700BF82B04368196002B0704700BF4368002282B01B685FFA83FC75
:20120000C3F30720C3F307411B0E6CF3070260F30F2261F3174263F31F62104602B070479B
:2012200082B06B4683E80600426893E803005060118102B0704700BF4A680346506812897A
:20124000186018469A80704743685961704700BF43685869704700BF4368D960704700BFD0
:201260004368D868704700BF0020704700207047002070470020704700207047D0F8A4006E
:20128000704700BF0020704700207047037B032B04D8DFE803F00D0905020022104670479C
:2012A00000F150021046704700F110021046704700F1700210467047037B032B02D8024A8C
:2012C00052F8232010467047947C010870B5224B054604460E4645F8A83B0430294600F02D
:2012E0006FF81E4B002104F1100003F130022673C4E90032402215F0D6FD2022002104F1C8
:20130000500015F0D0FD3422002104F1700015F0CAFD0023C4F8A8306B61C5E90133C5E9F0
:201320000333032E06D8DFE806F0110C02070C4BC4F8A430204670BD00232046C4F8A430F2
:2013400070BD084B2046C4F8A43070BD064B2046C4F8A43070BD00BFAC7C0108DC7C010825
:20136000D88D01080C8F0108788E0108037B012B00B504D0022B13D07BB15DF804FB00F198
:20138000100E00F1A80CBEE80F00ACE80F009EE803008CE803005DF804FB00F1700EF0E798
:2013A00000F1500EEDE700BF0020704782B0002002B07047014B0360704700BF3C7D0108D2
:2013C000014AC0E900217047587D010838B5084CA4F19005183C234653F8080B984203D030
:2013E000A168013114F0D7FFAC42F3D138BD00BFE8030020C0E900128360DDE90023C0E937
:20140000032370472DE9F0410546044684B0904655F8140B08220E4603685F682B46B8477D
:2014200018B1A269B2F5806F03D9002004B0BDE8F08106F10801264656F81C0B03685F6869
:201440003346B8470028F0D00023A06867692946A269237563750832A375E37503685B686F
:2014600098478742E1D13146A269684609F09AFF4246216968460AF09BFDD7E72DE9F043F7
:20148000002189B0C2680446FFF7BCFF002834D0D4F804801E2304AE01A9D8F8002002A81A
:2014A000524C17680022CDE9013614F0A1FF019B0290054604934FF0000EDFF83CC10FCC50
:2014C000286067456960AA60EB6007CC238828616961AA61AB83019B029A039302F803E005
:2014E0007AD10298B04203D00499013114F053FF0127384609B0BDE8F0830546E2684FF4CE
:2015000080612046FFF77EFF074678BBD4F804901C2304AE01A9D9F80020354CD2F80080DA
:20152000024602A8CDE9013614F062FF019B029005460493DFF8C0C00FCC2860E0456960AF
:20154000AA60EB6007CC28616961AA61019B029A0393D75445D10298B042CAD00499013101
:2015600014F019FF384609B0BDE8F083676836232A4604AE396802A81E4DD1F8008001A90D
:20158000CDE9013614F034FF019B844605F1300E029004932C460CF1100C10350FCC744500
:2015A0004CF8100C4CF80C1C4CF8082C4CF8043CF0D1AB8800212868ACF80430CCF8000022
:2015C000019B029A0393D1540B4B984589D002AA03213846C04784E702AA02214046B84778
:2015E0007FE702AA48460421C047B4E7807D0108D87D0108A07D01087D030008FFF73EBF7F
:2016000010B5164C86B016496A462046FFF78CF801AA144904F11800FFF786F802AA1249EE
:2016200004F13000FFF780F803AA104904F14800FFF77AF804AA0E4904F16000FFF774F8B0
:2016400005AA0C4904F17800FFF76EF80A4A0B49002006B0BDE8104014F098BE5803002075
:20166000487B01084C7B0108547B01085C7B0108647B01086C7B010800000020CD13000836
:2016800038B5084CA4F19005183C234653F8080B984203D0A168013114F07DFEAC42F3D1AB
:2016A00038BD00BF780400202DE9F04383B0002504464FF4C0690A9F0E46838029460260B2
:2016C000143040F8087C019240F2046240F80E5C20F80A5C40F8045CDDF82C800D9F15F0F5
:2016E000E2FB40F20462294604F5C360A4F8149615F0D9FB0C9B41463A46C4F8243C04F607
:201700002C400E9BA4F8189CC4F8283CC4F81C5CC4F8208C00F062FA3A46D4F8201C04F6DA
:20172000644000F099FAE0682A4629460368C4F89C6C1B689847C4F81C0C18B1204603B004
:20174000BDE8F0832021034809F0A0FA204603B0BDE8F083F87D01082DE9F04F0B460446B3
:20176000C06891B023610368A288D4F81C1C9B689847D4F8247CD4F81C2C05463B685489B6
:201780001B680393002870D0092C40F21781632C40F2E080B4F57A7FC0F0208142F20F73FF
:2017A0009C428BBF4FF004094FF00309052104210DF1100806AE2D22DFF838A24046049635
:2017C00014F093FE09F1FF32DDF810B04FF06409844942F20F705A44AAFB04C3A4465B0930
:2017E000844509FB134E1C4631F81E3022F80239F2D8BCF57A7F80F0B9803034E4B2002254
:2018000025238BF80040404600931146764B0DF1300814F0C5FE8146CDF82880044659F8C0
:20182000083B4B4500F0B0800A9383680C936368039A0B930023C4F80090636023726B4B0B
:201840009A4240F09B800A98404503D00C99013114F0A1FD0498B04203D00699013114F0B8
:201860009AFD284611B0BDE8F08F092C40F29A80632C5BD9B4F57A7FC0F0AC8042F20F7306
:201880009C428BBF4FF004094FF00309052104210DF1100806AE2D22DFF858A14046049635
:2018A00014F023FE09F1FF32DDF810B04FF064094C4942F20F7E5A44AAFB040320465B092D
:2018C000704509FB134C1C4631F81C3022F80239F2D8B0F57A7F35D23034E4B200222D23E9
:2018E0008BF80040404600931146414B0DF1300814F056FE8146CDF82880044659F8083B89
:201900004B4548D00A9383680C936368039A0B930023C4F8009063602372344B9A4292D06E
:2019200038460AAA0421039B98478CE70DF1100806AE02212D224046049614F0D6FDDDF858
:2019400010B0284901EB440311F814405B788BF80130C3E70DF1100806AE02212D224046D3
:20196000049614F0C2FDDDF810B01E4901EB440311F814405B788BF8013040E738460AAA9E
:201980000121039B98475EE7426849464046013215F053FB4BE7426849464046013215F0F5
:2019A0004CFBB2E70DF1100806AE2D2201214046049614F09AFDDDF810B08DE70DF1100832
:2019C00006AE2D2201214046049614F08EFDDDF810B012E74FF00209032159E74FF00209AD
:2019E0000321E5E6747B0108747E01087D0300089C7E01081F85EB5170B50546012100F6F2
:201A0000644000F041F9D5F89C3C0121D5F8282C04460170197A1668017419688160104617
:201A200059687368E16098472B6960601A681846136898472B6960741A681846536898477A
:201A40002B69A0741A681846D3689847E074C0F30722C0F30743C0F3076022756375A07519
:201A6000286903689B6898472B69E0751A68184613699847A06170BD30B5044685B0FFF7DC
:201A8000BBFF04F5C36503ABB4F8182C04F66440294600F069F980B1E1682A46D4F80600B2
:201AA000BDF80C300D68A4F81A3C0090084661890191D4F81C1C2C69A04705B030BD00BF93
:201AC00070B5044684B0C068B4F8143604F1140502680293A31DCDE9003504F10A03D6684D
:201AE000D4F81C1CA288B04708B1A37D0BB104B070BD0246294604F62C4000F0E5F8002839
:201B0000F5D0204604B0BDE87040FFF7B5BF00BF10B5164C86B016496A462046FEF704FE9F
:201B200001AA144904F11800FEF7FEFD02AA124904F13000FEF7F8FD03AA104904F1480047
:201B4000FEF7F2FD04AA0E4904F16000FEF7ECFD05AA0C4904F17800FEF7E6FD0A4A0B4978
:201B6000002006B0BDE8104014F010BCE8030020487B01084C7B0108547B01085C7B01086B
:201B8000647B01086C7B0108000000208116000810B586B0044601A80AF096FA054904F1F3
:201BA0001C0201A80AF0C2FD08B1049B238106B010BD00BF2C8C010810B5044684B02289B8
:201BC000684609F0EFFB04F11C02034968460AF0EFF904B010BD00BF2C8C01088C46134659
:201BE0000021624610B5044600F05CF8002206492346204643F81C1BE261C3E90122C3E959
:201C00000322C3E9052210BDD47E010810B586B0044601A80AF058FA054904F11C0201A860
:201C20000AF084FD08B1049B238106B010BD00BF2C8C010810B5044684B02289684609F095
:201C4000B1FB04F11C02034968460AF0B1F904B010BD00BF2C8C01088C4613460121624631
:201C600010B5044600F01EF8002206492346204643F81C1BE261C3E90122C3E90322C3E90E
:201C8000052210BDE47E0108034609B91C30704700221C30DA61C0E90122C0E90322C0E9EB
:201CA0000522704710B4074C017100210460C0F806105DF8044B4181C1608361C0E9041240
:201CC000704700BFF47E010821B370B5154603794A8806460C469A4201D0002070BD0A8847
:201CE000A2F10803C2804069338103681B6898470028F2D106F10C032068616803C3F38857
:201D0000AB42EAD1336804F1080130465B68BDE8704018470020704770B5038904468069DA
:201D20000D4622790833E2819BB202681268E380A38190476269002104F10C032082618213
:201D400011680E6803CB2860104669602946E288B04704F10C026082034603CA63812860E8
:201D60000120696070BD00BFF8B549B11F4603680C46083A1B68083106469847054610B987
:201D800000252846F8BD33892146304608333B60FFF7C2FF2846F8BD83880246013398B2E1
:201DA000908070470249002201608280704700BF047F010803460021D0F8180C452210B409
:201DC000012483F82E1CD3F8241CC3F80C4C03685DF8044B9B68184790F82E0C704700BF52
:201DE00070B5541A82B00E4605460F2C019411D8012C006808D10B7803700023019C286812
:201E00006C60035502B070BD5CB900236C60035502B070BD002201A914F0EAFA019B2860AC
:201E2000AB602246314615F008F9019C286800236C60035502B070BD38B5084CA4F19005F4
:201E4000183C234653F8080B984203D0A168013114F0A1FAAC42F3D138BD00BF080500204D
:201E60002DE9F0411D461F4B04464FF4C06840F8043B0F461646002140F2046215F013F8A8
:201E800040F20462002104F5C160A4F8048615F00AF8069B00222846C4F81C3C079B114604
:201EA000A4F8088CC4F8203C2B68C4F8107C1B68C4F8146CC4F8185CC4F8242CA4F8282C14
:201EC0009847C4F8240C40B100220123204684F82E2CC4F80C3CBDE8F0811421024808F033
:201EE000D5FEF1E72C800108087F010830B501460024B0F80E0C4FF0000281F8084683B0A5
:201F0000040A042364F30702D1F8184C81F8093660F30F222568A1F80A3CA1F80A26B1F8E5
:201F2000282C019201F5C162D1F82A0C009020462D69D1F8241CA84703B030BD30B54FF456
:201F4000A06204468D8883B0C4F8082600236A1C084604F20C6192B214F0C4FBD4F8182C92
:201F6000B4F8280C6B1D11689BB20190D4F82A0CA4F80A3C009010460D6904F5C162D4F87A
:201F8000241CA84703B030BD03460122D0F8100C4FF0000CC3F80C2C8268B3F8061683F8B8
:201FA0002ECC6AB10239063310B582B0C468ADF802100DF1020201A90193A04702B010BD18
:201FC000104670472DE9F041C1880446B0F80C3C4FF00002B0F80656080A88B060F307023F
:201FE00061F30F2291B2A4F80E2C8B4259D0D4F81C6C013B32689942176818D0454A0DF154
:20200000100802A8A2F11001CDF80880FFF7E8FE414B9F4273D10298404503D004990131BF
:2020200014F0B9F90025284608B0BDE8F08127230DF11008394D002201A902A8CDE901383E
:2020400014F0D6F9019B044605F1200E02900493AC4610341035BCE80F00F44544F8100CBB
:2020600044F80C1C44F8082C44F8043CF0D1AB8800212868A380AB792060A371019B029A58
:202080000393D154244B9F423ED10298404503D00499013114F07FF90125284608B0BDE8F8
:2020A000F081D4F8100C2E1F01338569B6B2A4F80C3C55B104F10803C56901AA103002A942
:2020C000ADF804600293A8470546B6F5007F14D2D4F8100C836A13B1C36A20309847002300
:2020E000D4F8200C84F82E3C03681B689847C4F8300C284608B0BDE8F0810123F0E702AA5A
:2021000004213046B84786E702AA03213046B847BBE700BFAC7F01087D030008747F01085A
:202120002DE9F04F97B0734A06464FF0000506ABA2F1120104A80493FFF752FEB388D6F8CD
:202140001C8C1A0A62F3070563F30F25D8F80030ADB21B68092D2C46029340F2BF80632DA8
:2021600079D9B5F57A7FC0F0B58042F20F739D428BBF4FF004094FF00309052104210DF1C6
:20218000280B0CAF2D22DFF880A158460A9714F0ACF909F1FF320A9B4FF06409DFF86CC1A2
:2021A00042F20F7E1A44CDF80C80AAFB041021464009714509FB104804463CF8180022F884
:2021C0000209F2D8B1F57A7FDDF80C804FD23034E4B21C7000221423584611460DF1480AE5
:2021E0000093454B14F0DCF98146CDF840A0044659F8083B4B4566D01093836812936368D5
:20220000029A11930023C4F80090636023723B4B9A4252D11098504503D01299013114F041
:20222000BAF80A98B84203D00C99013114F0B3F8022D35D0032D21D004A93046FFF77EFE0D
:20224000049806AB984203D00699013114F0A3F817B0BDE8F08F0DF1280B0CAF2D220221CB
:2022600058460A9714F041F90A9BDFF8A0C00CEB44021CF8144052785A70AAE73046FFF7CF
:20228000A1FE12230446059A009300211C4B04A814F086F9002CCFD03046FFF727FECFE725
:2022A0003046FFF771FE15230446059A00930021144B04A814F074F9ECE7404610AA0221BC
:2022C000029B9847A6E7426849465046013214F0B4FE94E74FF00209032150E70DF1280BEC
:2022E0000CAF2D22012158460A9714F0FEF80A9B6DE700BFC27F0108C47F01087D030008A3
:20230000F47F0108DC7F01081F85EB51747B010830B5044685B0D0F8180C4522B4F8045648
:20232000231D0168CDE9013504F62A43009304F62843CD68D4F8241CA847A4F8060608B910
:2023400005B030BD204605B0BDE83040FFF7E8BE2DE9F043044689B0FFF7DAFF94F82E3C7E
:20236000012B02D009B0BDE8F083D4F8200C002343F6982204F5436105686D68A84700288A
:20238000F0D0D4F81C9C1A2304AF01A9D9F8002002A81B4DD2F800800022CDE9013714F0FE
:2023A00027F8019B0646029004934FF0000EDFF854C00FCD3060E0457160B260F360029A52
:2023C000019B03CD0393716129883061318302F803E00FD10298B84203D00499013113F03D
:2023E000DAFF0022012384F82E2CC4F80C3C09B0BDE8F08302AA48460321C047EAE700BF1E
:20240000088001087D03000810B5164C86B016496A462046FEF788F901AA144904F1180046
:20242000FEF782F902AA124904F13000FEF77CF903AA104904F14800FEF776F904AA0E49EA
:2024400004F16000FEF770F905AA0C4904F17800FEF76AF90A4A0B49002006B0BDE810408D
:2024600013F094BF78040020487B01084C7B0108547B01085C7B0108647B01086C7B01083E
:2024800000000020391E0008007B7047022902D8024B585C70470120704700BF3880010876
:2024A000084619B101290CBF08460220704700BF38B50446406803681B689847012817D06D
:2024C000606803681B6898470128054619D0606803681B68984710B10325257338BDA068F7
:2024E00003681B6898470128F6D10225257338BDA06803681B6898470128E1D100252573FE
:2025000038BDA06803681B6898470028DFD1257338BD00BF044B10B504468260C0E90031B3
:20252000FFF7C6FF204610BD44800108704700BF10B502238EB04FF4800102200693082398
:2025400000244FF4D872CDE907139FED0D7B09210723039409920C93CDE90A0168468DEDD8
:20256000007B0DF083FD10B120460EB010BD0DF043FDB0FA80F040090EB010BDAFF3008064
:20258000010000000000010010B50F2086B002214FF480539FED107BCDE900010721684632
:2025A00004938DED027B0EF037F810B1002006B010BD04460EF046F9094BA3FB00308009CA
:2025C0000AF0DCFE224621464FF0FF300AF052FE012006B010BD00BF000000000014000029
:2025E000D34D621010B582B00446FFF7A1FF10B9002002B010BD2046FFF7C6FF0028F7D0FA
:2026000001900AF05DFD019802B010BD70B500230D4D0C46061D45600121202503810361B2
:202620008023856115464162C36130460AF026FF10B14FF0FF3070BD2A46214630460AF0B7
:202640009DFFC04370BD00BF003002402DE9F0410468521A134D6468561CAC421DD103469B
:20266000114A00200F465A60202201211C1D9A6180221881186120465962DA610AF0FEFE32
:2026800018B14FF0FF30BDE8F0813246394620460AF074FFC043BDE8F08132462346BDE884
:2026A000F04118470D2600080030024090F86400B0FA80F04009704718300CF083BE00BF93
:2026C00018300DF02BBA00BF0268D2E9013112684FEA630C01EB6300DB0702D551F80C300B
:2026E0009A581047012A38B5044603D10B680360002038BD022A0CD0032A03D0002AF7D176
:202700000260F5E700680028F2D00C2113F043FEEEE70D680C2013F040FE034695E8070034
:20272000236083E80700E3E770B5541A82B00E4605460F2C019411D8012C006808D10B78CC
:2027400003700023019C28686C60035502B070BD5CB900236C60035502B070BD002201A9AC
:2027600013F046FE019B2860AB602246314614F064FC019C286800236C60035502B070BD4D
:202780000268D2E9013112684FEA630C01EB6300DB0702D551F80C309A581047012A38B5D2
:2027A000044603D10B680360002038BD022A0CD0032A03D0002AF7D10260F5E70068002848
:2027C000F2D00C2113F0E7FDEEE70D680C2013F0E4FD034695E80700236083E80700E3E73D
:2027E00038B5084CA4F19005183C234653F8080B984203D0A168013113F0CDFDAC42F3D1EC
:2028000038BD00BF9805002070B5466886B00D4A336802ACA2F11A0168461D680094FFF733
:2028200083FF094B9D4208D10098A04203D00299013113F0B0FD06B070BD6A460221304614
:20284000A847F1E77A8001087D030008F0B5476887B00F4A04463B6802ADA2F10A0168465A
:202860001E680095FFF760FF0A4B9E420BD10098A84203D00299013113F08DFD002384F889
:20288000643007B0F0BD6A4638460421B047EEE7868001087D030008F0B5476887B0154AA0
:2028A00004463B6802ADA2F1120168461E680095FFF73AFF104B9E4216D10098A84203D067
:2028C0000299013113F067FD94F86430012B01D007B0F0BDE06803681B6898470223A06702
:2028E00084F8643007B0F0BD6A4638460221B047E3E700BF9A8001087D0300082DE9F04F93
:202900001546A7B04FF4FA7206460C4600930292AAB20223183001928AB2A0210CF0E4FB5D
:2029200018B1002027B0BDE8F08FD6F80480092DD8F800301B68059340F2AA81632D40F2F1
:20294000B481B5F57A7FC0F0B68142F20F739D4240F2B381B84B9D4240F2B581B74B9D4292
:2029600040F2B381B64B9D421ED3B64B9D4240F25881B54B09219D4217D901310DF168099B
:202980000DF1700B00224846CDF868B013F0ADFD632DDDE91A7214D8AC4901EB450311F884
:2029A00015505B787B7027E007210DF168090DF1700B00224846CDF868B013F096FDDDE9F4
:2029C0001A72023AA149DFF894E24FF0640C3A4442F20F70AEFB05632E465B0986420CFB60
:2029E000135A1D4631F81A3022F80239F2D8B6F57A7FD2D23035EDB2002208233D704846A1
:202A000000931146924B16AF13F0CAFD06461497054656F8083BB34200F02981149383686C
:202A200016936A686FF040432E609B1A15920022082B6A602A7240F24C810922854914A8E0
:202A400010AD13F02BFE81460E95064659F8083B4B4500F005810E93836810937368002211
:202A6000092CC6F800900F937260327240F20681632C40F21C81B4F57A7FC0F01A8142F283
:202A80000F739C4240F21B816B4B9C4240F219816A4B9C4240F21B81694B9C42C0F09680EF
:202AA000684B9C4240F2BF80674B09219C4240F28E80013120AB22AE00221846079320967D
:202AC00013F013FD632CDDE9203240F28B80023A5E49DFF888A14FF064091A4442F20F7E51
:202AE000CDF81880AAFB040C20464FEA5C1C704509FB1C48644631F818C022F802C9F1D837
:202B0000B0F57A7FDDF818806DD23034E4B21C700E9B0F98AB42219A209900EB020414BF70
:202B2000DDF840C04FF00F0C644507D9B14214BFDDF888C04FF00F0C64455BD96FF04043E1
:202B40001B1A9A4200F2C5800EA80DF1280913F0A5FD8246CDF8209004465AF8083B5345EF
:202B600058D00893A3680A936368C4F800A0099300232372059A6360374B9A4255D10898E9
:202B8000484503D00A99013113F005FC2098B04203D02299013113F0FEFB0E98A84203D033
:202BA0001099013113F0F7FB1498B84203D01699013113F0F0FB1A98584503D01C990131F4
:202BC00013F0E9FB012027B0BDE8F08F072120AB22AE002218460793209613F086FCDDE914
:202BE000203274E7194901EB440211F8144052785A708CE70022009007980DF12809114659
:202C000013F0CEFC8246CDF8209004465AF8083B5345A6D1626851464846013214F00DFA8F
:202C2000A2E70821C1E60821D1E7404608AA0221059B9847A3E700BF9F8601003F420F0081
:202C400080969800FFE0F505FFC99A3BB08101089C800108C08001087D0300081F85EB5140
:202C6000426849462846013214F0E7F9F6E6426831463846013214F0E0F9D2E620AB22AEB8
:202C8000012118460793209613F02FFC209B3CE70DF168090DF1700B024601214846CDF8B3
:202CA00068B013F022FC1A9FA4E6022166E6022100E703218BE7032177E6042175E6042163
:202CC00085E7052183E705216FE6052155E60521EFE6014813F078FBA880010838B500F153
:202CE000180504464C220021284614F0DCF81049104A012328466362C4E906120CF022F9B2
:202D000028B9002128460DF025F950B938BD3321094807F0BBFF002128460DF01BF900280C
:202D2000F4D034210448BDE8384007F0AFBF00BF00540040A30C1020CC8001082DE9F04FD0
:202D40009FB0002400F11803064609AF0C20099402AD1C940DF1540804940DF164090794D0
:202D60000893DFF818B2DFF818A2CDE90C44CDE91044CDE91444CDE91844C7E90144CDE9AB
:202D80000E44CDE91244CDE91644CDE91A44CDE9054413F002FB0C9A0B9B0792446004AC79
:202DA000704A0490069386600260CDF82CB0CDF830A094E8030085E8030097E8030084E8D1
:202DC000030095E8030087E803001BB1032221462046984700230C200493C4E90133079300
:202DE00013F0DBFA1C9A00230490079243605E4A1B9B866006930260CDF86CB0CDF870A05D
:202E000094E8030085E8030099E8030084E8030095E8030089E803001BB10322214620461E
:202E2000984700230C200493C4E90133079313F0B4FA189A00230490079243604B4A179BB5
:202E4000866006930260CDF85CB0CDF860A094E8030085E8030098E8030084E8030095E89D
:202E6000030088E803001BB1032221462046984708A9002003F02CF9D6F810A000250C2087
:202E8000DAF80030D3F800B00495C4E90155079513F083FA0346364A5046DFF8E8A01A60C5
:202EA0001F2104932246CDF81CA0C3E90156314D0695D847069B1BB10322214620469847D9
:202EC000316900220C200B680191D3F800B00492C4E90122079213F060FA00220346019929
:202EE000049308462021C3E90126234ACDE9065A1A602246D847069B1BB1032221462046F6
:202F00009847002209211F200AF0B4F900220A2120200AF0AFF91F200AF0F2F920200AF013
:202F2000EFF91B9B1BB10322494648469847179B1BB10322414640469847139B1BB111A943
:202F40000322084698470F9B1BB10DA90322084698470B9B1BB103223946384698471FB05F
:202F6000BDE8F08F4D2800089928000809280008B9260008E5260008C12600089D270008F9
:202F8000C92600088127000838B51D46049B04464160826000214C22C0E90353164B183097
:202FA00040F8183C13F07FFF40F61802002104F1680013F078FF0723802284F87C300023A5
:202FC000626784F86430059BB3F5006F0DD22B6828461B689847034620466361FFF77EFE3A
:202FE0002046FFF7ABFE204638BD1A21034807F04DFEE568EBE700BFA0810108CC8001084C
:203000002DE9F043D0E91B5689B004467319DB09B3EBD51F03D0EA090132C5EBC216D4F86B
:20302000049004AF1B4A02A8D9F80030A2F11101D3F800800297FFF777FB174B984523D115
:203040000298B84203D00499013113F0A4F9A16EB3B2AAB204F11800019302230091A021B2
:203060000CF02AF960B9236F0120D4E91A129B1B314432442367C4E91A1209B0BDE8F083A7
:20308000002009B0BDE8F08302AA48460221C047D6E700BF618101087D030008F0B51D46E4
:2030A00090F8643087B023B94B190E46B3F5803F02D9002007B0F0BD00F17D030446114651
:2030C0002A46184613F0B9FF6768124A3B68A066A2F11B016846C4E91B6502AD1E6800953F
:2030E000FFF722FB0C4B9E420FD10098A84203D00299013113F04FF92046FFF781FF002835
:20310000D7D0012384F86430D4E76A4638460221B047EAE77F8101087D030008F0B5044680
:20312000C06887B00023056804F1780194F87C206D68A84708B907B0F0BD676802AD134A46
:2031400068463B68A2F114011E680095FFF7ECFA0F4B9E4215D10098A84203D0029901313D
:2031600013F019F9236F1BB984F8643007B0F0BD2046FFF745FF0028DDD0012384F86430B7
:20318000D9E76A4638460221B047E4E7948101087D03000890F86430022B00D07047FFF7F0
:2031A000BDBF00BF10B5164C86B016496A462046FDF7BAFA01AA144904F11800FDF7B4FAA3
:2031C00002AA124904F13000FDF7AEFA03AA104904F14800FDF7A8FA04AA0E4904F16000F4
:2031E000FDF7A2FA05AA0C4904F17800FDF79CFA0A4A0B49002006B0BDE8104013F0C6B850
:2032000008050020487B01084C7B0108547B01085C7B0108647B01086C7B01080000002035
:20322000E127000838B5084CA4F19005183C234653F8080B984203D0A168013113F0ABF86A
:20324000AC42F3D138BD00BF2806002038B50B460446A025482240F8043B002113F023FE47
:203260002A46002104F14C0013F01DFE2A4641F6C455002104F1EC0013F015FE2A460021F5
:2032800004F5C67013F00FFE41F650702A460021204413F008FE204638BD00BF70B5012397
:2032A0000446184A081D0025498AE36123624FF40063A560251D62604FF4804223614FF401
:2032C0000003A0612846A182E26063620AF06EFC41F65072064604F1EC01224405232846CB
:2032E0000AF044FA052304F5C67204F14C0128460AF084FA28460AF0A3FDB6FA86F040099E
:2033000070BD00BF0080024008B504300AF036FBB0FA80F0400908BD006CB0F5C06F88BF34
:2033200000207047436803F580535A69920603D52021002259615A60704700BFC26B436BE5
:203340004AB100211A68013142F000421A60C26BDB688A42F6D84368002203F58053C263E8
:203360005969090602D5802159619A60704700BF2DE9F047466BD0F8449051B38A46002448
:2033800040F2F458BAF80A201319434524D9214600251C46A8EB0107DAF80400A4F2F454E5
:2033A000494428443A4613F048FEF66844453D444FF00001D6F80890ECD849462246DAF8B0
:2033C0000400284413F039FEDAF800A0BAF1000FD8D10020BDE8F08709EB040100251C46B2
:2033E000EDE700BF2DE9F04F046B8BB08B46A3680090002900F08C80002640F2F459B0460F
:203400002268002A71DBBBF80A2095194D4567D9002702E04D45A36846D9A9EB060ADBF813
:203420000410981900263944524613F006FEE468A5F2F45557442368D044B342EADA009BCB
:2034400006AE03A904A8D3F800801A23314CD8F8002017680022CDE9033612F0C9FF0546C6
:203460000490039B4FF0000EDFF8B0C0069367450FCC28606960EB60AA6003CC23882861BD
:2034800069612B83039B049A059302F803E022D10498B04203D00699013112F07CFF6FF002
:2034A00007000BB0BDE8F08F18462E46DBF804102A460193A844394413F0BFFDDBF800B0BE
:2034C000019BBBF1000F9BD10098414604300AF0D7F90020E5E704AA04214046B847D7E70A
:2034E000981900272E461546E0E7009B06AE03A904A8D3F800801A23074CD8F8002017686D
:203500000022CDE9033612F073FF05460490A8E78846D9E7988201087C8201087D03000878
:2035200004300AF073BA00BF09F06EBE704700BF704700BF704700BF10B586228AB002231E
:203540000B2404A921480894CDE9042300220323CDE906230AF058FF4FF4605304A91C482E
:2035600004930AF051FF322304A91A4804930AF04BFF042304A9184804930AF045FF002200
:2035800001213D2009F076FE3D2009F0B9FE134B1A6B42F000721A631A6B02F000720192B2
:2035A000019A1A6B42F080621A631A6B02F080620292029A1A6B42F000621A631B6B03F0C2
:2035C00000630393039B0AB010BD00BF000002400004024000080240001802400038024068
:2035E00010B5164C86B016496A462046FDF79CF801AA144904F11800FDF796F802AA1249D3
:2036000004F13000FDF790F803AA104904F14800FDF78AF804AA0E4904F16000FDF784F886
:2036200005AA0C4904F17800FDF77EF80A4A0B49002006B0BDE8104012F0A8BE9805002017
:20364000487B01084C7B0108547B01085C7B0108647B01086C7B01080000002025320008BF
:203660000520704738B5084CA4F19005183C234653F8080B984203D0A168013112F08BFE75
:20368000AC42F3D138BD00BFB806002010B4044C0022C0E9004182605DF8044B704700BFCA
:2036A000DC8201082DE9F04F062391B00646806800210AAA03820AF0E7F9002840F0CF80D5
:2036C0009DF82890C846B06806230AAA012103820AF0DAF9002840F0C0809DF828703F0919
:2036E000D6F804B0B8F1090FDBF800301B68029340F2C180B8F1630F40F29E8004AD06AC2B
:203700002D2203212846049412F0EFFE6C4B64226C49A3FB080304985B0902FB1382984636
:2037200001EB420311F812205B784270837008F130085FFA88F800220F2380F800802846E1
:2037400011460093604B0DF1300812F029FF0146CDF82880824651F8083B8B4200F09F8090
:203760000A9383680C93DAF804300B930023CAF80010CAF804308AF80830DFF854A1029B70
:20378000534540F082800A98404503D00C99013112F001FE0498A04203D00699013112F069
:2037A000FAFDD6F804B0092F4FF02D02DBF800301E68049457D90221284612F096FE414AE7
:2037C000049B02EB470112F81720497859701A7000220D232846114600933C4B12F0E0FEAF
:2037E0000146CDF82880054651F8083B8B425ED00A9383680C936B6856450B934FF00003CE
:2038000029606B602B7245D10A98404503D00C99013112F0C0FD0498A04203D006990131EF
:2038200012F0B9FDB9F1950F08BF062F0CBF0120002011B0BDE8F08F04AD06AC2D220221C0
:203840002846049412F051FE1E4B049803EB480213F81880537843706DE70F2740E74FF0C3
:20386000FF08C1462FE70121284612F03EFE049B07F13002ABE704AD06AC2D2201212846B9
:20388000049412F032FE049851E758460AAA0221984778E70AAA58460221B047B4E7426826
:2038A00040460391013213F0C8FB03995BE7426840460291013213F0C0FB02999BE700BF87
:2038C0001F85EB51747B0108B4820108C48201087D03000870B581600546FFF7E3FE044688
:2038E00008B9204670BD0626A8680022314606820AF014F9A8680122068211460AF00EF9FD
:20390000204670BD10B5164C86B016496A462046FCF70AFF01AA144904F11800FCF704FF3B
:2039200002AA124904F13000FCF7FEFE03AA104904F14800FCF7F8FE04AA0E4904F16000E6
:20394000FCF7F2FE05AA0C4904F17800FCF7ECFE0A4A0B49002006B0BDE8104012F016BDEE
:2039600028060020487B01084C7B0108547B01085C7B0108647B01086C7B010800000020AD
:20398000653600080020704784464FF4905208B50B4600211846CCF808300AF0BFF8012063
:2039A00008BD00BF38B5084CA4F19005183C234653F8080B984203D0A168013112F0EBFC2C
:2039C000AC42F3D138BD00BF4807002010B4044C0022C0E9004182605DF8044B704700BFF6
:2039E000EC82010810B5164C86B016496A462046FCF79AFE01AA144904F11800FCF794FE59
:203A000002AA124904F13000FCF78EFE03AA104904F14800FCF788FE04AA0E4904F16000E5
:203A2000FCF782FE05AA0C4904F17800FCF77CFE0A4A0B49002006B0BDE8104012F0A6BC5E
:203A4000B8060020487B01084C7B0108547B01085C7B0108647B01086C7B0108000000203C
:203A6000A539000810B500F5405494F8C830082B16D003F20D3E43F2CC0C00EB0E1E8EF88B
:203A8000043000EB031E4EF80C100CEB031C43F2D001013360444EF8012084F8C83010BDE8
:203AA000002010BD70B579B30C7A43F2CC0200EB041C6244914202D00024204670BD221DF3
:203AC00050F8221001B340F20C6606FB04F28518B5F83246002CF0D002F13004B5F836263F
:203AE00004441A80049BD5F83806214618600598B5F8322613F0A1FA324600212046B5F86F
:203B0000324613F0D0F9D8E70C46204670BD00BF10F00CBF70B5541A82B00E4605460F2C94
:203B2000019411D8012C006808D10B7803700023019C28686C60035502B070BD5CB9002318
:203B40006C60035502B070BD002201A912F050FC019B2860AB602246314613F06EFA019C32
:203B6000286800236C60035502B070BD38B5084CA4F19005183C234653F8080B984203D05C
:203B8000A168013112F007FCAC42F3D138BD00BFDC0700202DE9F04F00F54055064691B010
:203BA000D5F84C01FFF7B8FB7768092804463B681B68029340F2B980632840F2C280B0F51E
:203BC0007A7FC0F0C08042F20F73984240F2BD80614B984240F2BB80604B9C4240F2B98016
:203BE0005F4B9C421ED35F4B9C4240F28F805E4B09219C4217D901310DF1100B06AE0022C1
:203C00005846049612F071FC632CDDE9043114D82246DFF860E10EEB42011EF812204978C2
:203C2000597029E007210DF1100B06AE00225846049612F05AFCDDE9043102392246DFF896
:203C400034E14FF064091944DFF82CA142F20F780394AAFB020410466409404509FB142C19
:203C600022463EF81C4021F80249F2D8B0F57A7F039CD0D23032D2B21A70002225235846C5
:203C800011460DF1300A0093384B12F089FC8146CDF828A0804659F8083B4B453ED00A930F
:203CA00083680C93D8F80430029A0B930023C8F80090C8F8043088F808302D4B9A4227D1D1
:203CC0000A98504503D00C99013112F064FB0498B04203D00699013112F05DFB3CB9D5F854
:203CE0004C01FFF72BFB204611B0BDE8F08FA1B24FF4C17200200DF09FFA04460028EED061
:203D00000146D5F84C01FFF733FBE8E708218AE738460AAA0121029B9847D1E742684946F4
:203D20005046013213F089F9BCE70DF1100B06AE002201215846049612F0D7FB049B22466E
:203D400098E7022158E703216DE704216BE7052169E705214FE700BF9F8601003F420F004C
:203D600080969800FFE0F505FFC99A3BF48201087D030008B08101081F85EB51002900F0E5
:203D8000018143F2CC032DE9F0470A7A8EB006460C4600EB02121344994203D000200EB00E
:203DA000BDE8F087002010F0F7FA0546002800F0A380437A00227F4943F02003437210F09E
:203DC0003BF9071E5DD0D6F804803C46B8BF7C42C7F3C016D8F80030092CD3F8009040F202
:203DE000B080632C40F2BB800DF1080A04AF2D22F11C5046029712F078FB6F4BA3FB042355
:203E000064225B0902FB1344029B6C4A334402EB440112F8142031245A704A789A701C70B3
:203E200000224623504611460AAC0093644B12F0B7FB8246089406465AF8083B534500F091
:203E4000AD80089383680A93736809930023C6F800A0736033725B4B994540F09A80089834
:203E6000A04203D00A99013112F095FA0298B84203D00499013112F08EFA284610F072FA8D
:203E80008CE722462846504910F068FA237AD6F804800AAC04333A4602A908A846F8235076
:203EA000D8F80030494DD3F800901F230894029312F09EFA029B064608900A93DFF804C14A
:203EC0000FCD3060E1457160B260F36007CD2B883061B383AB787161B261B377029B089A5B
:203EE0000993D75450D10898A04203D00A99013112F051FA012052E7D6F804800AAC422699
:203F00000246D8F8003002A908A81F680894029612F06EFA029B32462D490A93089013F016
:203F20008CF8029B089A0993D554264B9F423CD10898A0423FF432AF0A99013112F02BFA08
:203F40002CE70DF1080A04AF2D22711C50463034029712F0CAFA029BE4B233445FE70DF168
:203F6000080A04AF2D22B11C5046029712F0BDFA124A029B02EB440112F8144033444A78B6
:203F80005A704CE70020704708AA01214046C847A9E7404608AA0121C84760E74268514663
:203FA0002046013213F049F84EE708AA04214046B847BDE7909701081F85EB51747B0108E7
:203FC0003C8301087D0300086D5800081C83010884830108002900F0AF8243F2CC032DE9A8
:203FE000F04F0C46097AAFB0074600EB01110B449C4203D000202FB0BDE8F08F00209046EB
:2040000010F0CAF90646002800F0A2814246404910F012F80546002840F0868030462246B4
:204020003C49454610F09AF9237A092D03F1040347F823607E68A4F80A803368D3F800805B
:2040400040F2F382632D40F22982B5F57A7FC0F0D38242F20F739D428BBF04240324052150
:2040600004210DF1880924AF2D224846229712F03CFA611EDDF888A04FF0640C264A42F21C
:204080000F705144DFF89CE0AEFB05432C465B0984420CFB135B1D4632F81B3021F802398B
:2040A000F2D8B4F57A7F80F005823035EDB21C2300228AF80050484600931146174B2AACB6
:2040C00012F06EFA81462894054659F8083B4B4500F05B82289383682A936B6829930023A2
:2040E000C5F800906B602B720D4B984540F042822898A04203D02A99013112F04CF9229877
:20410000B84203D02499013112F045F9012072E7909701086D580008747B0108C8830108E0
:204120007D0300081F85EB51D7F804B06489DBF80030092C1B68029340F28382632C40F25F
:20414000C181B4F57A7FC0F05A8242F20F739C428BBF4FF004094FF00309052104210DF131
:20416000100806AF2D22DFF8E0A14046049712F0BCF909F1FF31049B4FF064096F4A42F291
:204180000F701944CDF80CB0AAFB04CEA4464FEA5E1E844509FB1E4B744632F81BE021F87E
:2041A00002E9F1D8BCF57A7FDDF80CB080F095813034E4B21C70002225234046114600932A
:2041C0005F4B12F0EDF90CAB804604460A9358F8083B434500F0E0810A9383680C9362688C
:2041E0006FF04043C4F800809B1A0B9200221D2B6260227240F216821E2252490AA80DF13A
:20420000480812F04BFA8246CDF8408004465AF8083B534500F0C78110938368129363680D
:20422000C4F800A0C5F3C01A119300236360237285EAE574A4EBE574092C40F22081632C2A
:2042400040F252810DF1580918AD2D220AF103014846169512F049F93B4B3849A3FB04239E
:2042600064225B0902FB1343169A01EB4304524411F8133053706378312493701470109B17
:20428000119C4345179A169904EB020C14BF12980F20844506D9A94214BF18980F208445D2
:2042A00040F24C816FF040431B1B9A4200F2BA8110A82AAC12F0F2F981462894824659F8C7
:2042C000083B4B4500F08981289383682A93DAF8043029930023CAF80090CAF804308AF8FF
:2042E00008301A4B029A9A4240F049812898A04203D02A99013112F04EF81698A84203D092
:204300001899013112F047F81098404503D01299013112F040F80A980CAB984203D00C99B7
:20432000013112F038F80498B84203D00699013112F031F8304610F015F85BE6747B0108F8
:20434000E8830108648301081F85EB517D0300087E6864893368092CD3F8008040F256819A
:20436000632C40F2D580B4F57A7FC0F04C8142F20F739C428BBF04270327052104210DF18C
:2043800070091EAD2D2248461C9512F0AEF8791EDDF870A04FF0640CAF4A42F20F70514437
:2043A000DFF8C8E2AEFB047327465B0987420CFB134B1C4632F81B3021F80239F2D8B7F5BC
:2043C0007A7F80F0B1803034E4B2252300228AF80040484600931146A04B24AF12F0E0F80D
:2043E00081462297044659F8083B4B4500F0EE80229383682493636823930023C4F800902A
:20440000636023726FF04043239A9B1A192B40F209811A22924922A82AAC12F03FF9814638
:204420002894824659F8083B4B4500F0C880289383682A93DAF8043029930023CAF8009002
:20444000CAF804308AF80830864B984540F0B2802898A04203D02A99013111F09CFF2298DC
:20446000B84203D02499013111F095FF1C98A8423FF4C0AD1E99013111F08DFFBAE50DF19A
:20448000580918AD2D220AF1010148463034169512F02BF8169AE4B25244EFE60DF18809A8
:2044A00024AF2D2202214846229712F01EF8DDF888A0694A02EB450312F815505B788AF8AF
:2044C0000130F4E50DF1100806AF2D2202214046049712F00AF8049B5F4A02EB440112F8EC
:2044E00014404A785A7065E60DF1580918AD2D220AF102014846169511F0F7FF564B169A9F
:2045000003EB440113F8144052444B785370B5E60DF170091EAD2D22022148461C9511F05E
:20452000E4FFDDF870A04C4A02EB440312F814405B788AF8013048E7002070470022009449
:2045400048462AAC114612F02BF801462894824651F8083B8B4247D0289383682A93DAF80B
:20456000043029930023CAF80010CAF804308AF80830B6E628AA30460121C047B8E558465E
:2045800028AA0421029B9847B0E6426849462046013212F052FDA0E5426841460CA8013252
:2045A00012F04BFD1BE6426851464046013212F044FD34E6304628AA0421C04748E742680C
:2045C00049462046013212F038FD33E7426849463846013212F031FD0DE7426849462046B5
:2045E000013212F02AFD72E6426820460391013212F023FD0399B2E70224032131E54FF03A
:2046000002090321ABE502270321B8E60DF170091EAD2D22012148461C9511F066FFDDF8C3
:2046200070A0D0E6104811F0CFFE0DF1880924AF2D2201214846229711F057FFDDF888A020
:2046400033E50DF1100806AF2D2201214046049711F04BFF049BABE5747B0108E8830108FF
:20466000AC8301087D030008A88001081F85EB512DE9F04F93B0BDF874A0DDF8709051B131
:2046800090460A7A07461E4600EB021043F2CC030344994201D0002617E0043257F8225007
:2046A000002DF8D04FF4C172314600200CF0C4FD044670B1324641460DF00CF8064600285C
:2046C00078D0002620460CF013FF304613B0BDE8F08F7C68BAF1090F23681D6840F2E98148
:2046E000BAF1630F40F2F680BAF57A7FC0F0C68142F20F739A458BBF0426032605210421D9
:2047000006AF0DF120082D223846CDF8188011F0ECFE711EDDF818904FF0640CB94B42F2B6
:204720000F764944DFF8ECE2AEFB0A0250465209B0420CFB12AB924633F81B2021F80229E4
:20474000F2D8B0F57A7F80F0D2800AF1300A5FFA8AFA3C23002289F800A038460093114613
:20476000A94B0EAE11F01CFF81460C96074659F8083B4B4500F0C8800C9383680E937B684D
:204780000D930023C7F800907B603B729F4B9D4240F0B5800C98B04203D00E99013111F00E
:2047A000FAFD069840453FF476AF0899013111F0F2FD70E7524605A92846CDF814900FF051
:2047C00095FD834600287FF47DAF2146284656460FF082FD002840F09E80D7F804B0BAF124
:2047E000090FDBF800301B68029340F26F81BAF1630F40F22481BAF57A7FC0F0568142F20D
:204800000F739A458BBF4FF004094FF003090521042106AF0DF120082D22DFF8F8A13846F3
:20482000CDF8188011F061FE09F1FF31069A4FF06409744B42F20F7E1144CDF80CB0AAFB4A
:20484000060C30464FEA5C1C704509FB1C6B664633F81BC021F802C9F1D8B0F57A7FDDF80D
:204860000CB080F0F88006F13003DBB2137000221723384611460EAE0093654B11F090FE9B
:2048800081460C96074659F8083B4B4500F000810C9383680E937B68029A0D930023C7F8A1
:2048A00000907B603B72594B9A4240F0E1800C98B04203D00E99013111F06DFD06984045FF
:2048C00003D00899013111F066FD012628460FF03BFDF7E606AF0DF120082D22022138465A
:2048E000CDF8188011F001FEDDF81890454B03EB4A0213F81AA0537889F8013029E70CAA0C
:2049000020460421A84745E7426849463046013212F093FB33E7D7F80490BAF1090FD9F86E
:2049200000301B68029340F2BE80BAF1630F73D9BAF57A7FC0F0B38042F20F739A458BBFEC
:204940004FF0040B4FF0030B0521042106AF0DF120082D223846CDF8188011F0C6FDBAF1FD
:20496000630F06991AD90BF1FF32264BDFF8A4B04FF0640A0A4442F20F7ECDF80C90ABFBA7
:2049800006C0B4464009F4450AFB1069064633F8190022F80209F2D8DDF80C90092E46D812
:2049A00006F13003DBB20B7000221723384611460EAE0093164B11F0F3FD82460C9607463C
:2049C0005AF8083B53455CD00C9383680E937B68029A0D930023C7F800A07B603B720B4BD4
:2049E0009A423FD10C98B04203D00E99013111F0D2FC0698404503D00899013111F0CBFC29
:204A0000002663E7747B0108108401087D030008508401081F85EB5106AF0DF1200802214E
:204A20002D223846CDF8188011F05FFD06992D4B03EB460213F8163052784A70B3E706AF7E
:204A40000DF120082D2202213846CDF8188011F04CFD069A234B03EB460113F81630497844
:204A6000517003E748460CAA0121029B9847B9E758460CAA0121029B984718E702260321CC
:204A80003EE6426851463046013212F0D6FA9EE7426849463046013212F0CFFAFBE64FF0E4
:204AA000020B032152E7012150E74FF002090321AFE606AF0DF120082D2201213846CDF8A1
:204AC000188011F012FDDDF818903EE606AF0DF120082D2201213846CDF8188011F005FD63
:204AE000069AC0E6747B01082DE9F04F91B0BDF8689051B190460A7A06461C4600EB02102E
:204B000043F2CC030344994201D0002417E0043256F82270002FF8D04FF4C1722146002079
:204B20000CF08AFB054670B1224641460CF0D2FD824600287AD0002428460CF0D9FC2046CB
:204B400011B0BDE8F08F7568B9F1090F2B681F6840F2AB83B9F1630F40F2FC80B9F57A7FE6
:204B6000C0F0488342F20F7399458BBF04240324052104210DF1100B06AE2D2258460496EE
:204B800011F0B3FC611EDDF810804FF0640CBB4A42F20F744144DFF800E3AEFB0903484694
:204BA0005B09A0420CFB139A994632F81A3021F80239F2D8B0F57A7F80F0D88009F13009F1
:204BC0005FFA89F94423002288F80090584600931146AB4B0CAC11F0E3FC80460A94814620
:204BE00058F8083B434500F06B810A9383680C93D9F804300B930023C9F80080C9F804309B
:204C000089F808309F4B9F4240F033810A98A04203D00C99013111F0BEFB0498B0423FF483
:204C200074AF0699013111F0B6FB6EE74A46964938464C460FF05AFB002840F09F804B469E
:204C4000924A294638460FF01DFBD6F804A0DAF800301B680293002800F03981031D00F006
:204C60004582013000F0AE81B9F1090F40F21283B9F1630F40F21682B9F57A7FC0F0D882FD
:204C800042F20F7399458BBF4FF004084FF00308052104210DF1100B06AE2D22DFF8F891DA
:204CA0005846049611F021FC08F1FF31049B4FF06408724A42F20F7E19440397A9FB040708
:204CC00020467F09704508FB174C3C4632F81C7021F80279F2D8B0F57A7F039F80F0ED8117
:204CE00004F13002D2B21A7000222523584611460CAC0093664B11F053FC81460A948046A9
:204D000059F8083B4B4500F078820A9383680C93D8F80430029A0B930023C8F80090C8F8ED
:204D2000043088F80830574B9A4240F037820A98A04203D00C99013111F02DFB0498B0423B
:204D400003D00699013111F026FB002438460FF0FBFAF1E60DF1100B06AE2D220221584643
:204D6000049611F0C2FBDDF81080444A02EB490312F819905B7888F8013023E7D6F804801C
:204D8000B9F1090FD8F800301F6840F24B82B9F1630F40F28380B9F57A7FC0F0458242F228
:204DA0000F7399458BBF4FF0040A4FF0030A052104210DF1100B06AE2D225846049611F010
:204DC00094FBB9F1630F04991BD90AF1FF3A2B4A4FF0640942F20F7E01EB0A03DFF8B8A059
:204DE000CDF80880AAFB04C0A4464009F44509FB1048044632F8180023F80209F2D8DDF8E4
:204E00000880092C54D804F13003DBB20B7000222123584611460CAC00931E4B11F0C0FBAE
:204E200081460A94824659F8083B4B4500F033810A9383680C93DAF804300B930023CAF8CD
:204E40000090CAF804308AF808300E4B9F4240F0B4800A98A04203D00C99013111F09BFAB0
:204E60000498B0423FF467AE0699013111F093FA61E60AAA28460421B847C7E6747B0108CB
:204E8000688401087D030008909701088C9701083C850108648501081F85EB510DF1100B84
:204EA00006AE02212D225846049611F01EFB0499BD4B03EB440213F8143052784A70A5E742
:204EC000426841462046013212F0B7F890E6B9F1090F40F2B981B9F1630F40F2F580B9F542
:204EE0007A7FC0F0AD8142F20F7399458BBF4FF004084FF00308052104210DF1100B06AE50
:204F00002D22DFF8B8925846049611F0EEFA08F1FF31049B4FF06408A34A42F20F7E194482
:204F2000CDF80CA0A9FB040C20464FEA5C1C704508FB1C4A644632F81AC021F802C9F1D8BC
:204F4000B0F57A7FDDF80CA080F0C98004F13002D2B21A7000221E23584611460CAC0093A1
:204F6000924B11F01DFB81460A94804659F8083B4B4500F049810A9383680C93D8F8043007
:204F8000029A0B930023C8F80090C8F8043088F80830874B9A4240F013810A98A04203D0EF
:204FA0000C99013111F0F7F90498B04203D00699013111F0F0F90124C8E640460AAA0121DE
:204FC000B84746E7B9F1090F40F25981B9F1630F40F2D280B9F57A7FC0F02E8142F20F737B
:204FE00099458BBF4FF004084FF00308052104210DF1100B06AE2D22DFF8C091584604962D
:2050000011F073FA08F1FF31049B4FF06408664A42F20F7E19440397A9FB040720467F09AA
:20502000704508FB174C3C4632F81C7021F80279F2D8B0F57A7F039F80F0A98004F13002BF
:20504000D2B21A703B23584600220093594B11460CAC11F0A5FA81460A94804659F8083B7F
:205060004B4500F0D8800A9383680C93D8F804300B930023C8F8009088F80830029AC8F808
:2050800004304B4B9A423FF452AE50460AAA0421029B98474BE6426849462046013211F048
:2050A000CCFFC8E60DF1100B06AE2D2202215846049611F01AFA049B3B4A02EB440112F88B
:2050C0001420497859700EE60DF1100B06AE2D2202215846049611F008FA049B324A02EB9C
:2050E000440112F814204978597032E7B9F1090F40F2B980B9F1630F68D9B9F57A7FC0F0A9
:20510000AE8042F20F7399458BBF4FF004084FF00308052104210DF1100B06AE2D22DFF8B0
:205120009C905846049611F0E0F908F1FF31DDF810C04FF064081C4A42F20F7E6144039752
:20514000A9FB040320465B09704508FB13471C4632F8173021F80239F2D8B0F57A7F039F97
:2051600040D204F13003DBB28CF800302F23584600220093104B6AE70DF1100B06AE2D2247
:2051800002215846049611F0B0F9049B064A02EB440112F814204978597052E750460AAA9E
:2051A0000121029B9847C2E5747B0108B08401087D03000800850108D08401081F85EB5122
:2051C00050460AAA0121029B9847E6E60DF1100B06AE2D2202215846049611F086F9DDF84F
:2051E00010C0384A02EB440112F814304A788CF80120B9E702240321BCE44268494620464D
:20520000013211F01AFF83E5426849462046013211F013FFB2E6426849462046013211F089
:205220000CFF23E70121C4E54FF0020A0321C0E54FF0020803212DE54FF002080321D7E6D1
:205240004FF00208032158E60DF1100B06AE2D2201215846049611F048F9049B76E64FF0B1
:205260000208032157E70DF1100B06AE2D2201215846049611F039F9DDF810C071E70DF11E
:20528000100B06AE2D2201215846049611F02DF9049BD3E60DF1100B06AE2D22012158463B
:2052A000049611F022F9049B1AE50DF1100B06AE2D2201215846049611F017F9DDF81080AE
:2052C0007CE400BF747B0108F8B51F46079B00F540560025426004468360069A0F4BC16069
:2052E0002946036006F1CC00C6F8C420802286F8C85011F0D8FD2946202204F11000C6F8F5
:205300004C7111F0D0FD43F26002294604F1300011F0C9FD024B20461C60F8BD3486010869
:20532000480700202DE9F041054643F2900488B0002705F540560BF081FC2C44DFF854E0C1
:20534000D6F8C45007ABDFF850C006AAD5F8008005A92046CDF81480D5F80A80D5F80E50E6
:205360000097CDF818800795CDE901CE0BF08EFE50B120460BF0F0FE96F8BD3020465B07FE
:2053800005D40BF009FF012008B0BDE8F0810BF0E9FEF8E7F1560108195500082DE9F04372
:2053A000D0F8048089B0564A0546D8F8003004AE544FA2F10C011C6802A80296FEF7AAFB28
:2053C000BC4240F08D800298B04203D00499013110F0E1FF05F5405447F27343A4F8BE307D
:2053E000494BD4F8C410C4F8A430484BD4F84C01C4F8A830FDF752FF30B394F8BDC043F243
:20540000B502D4F8C4004CF004032A4484F8BD30062384F8BC30C31C093013F8011F834292
:2054200002F8011FF9D14CF00E0CD4F84C1140F2DC5284F8BDC00431A86803681B68A4F8E1
:20544000B42098470446B8B96D6802A8304A2B68A2F115011C680296FEF75CFBBC4244D12E
:205460000298B04203D00499013110F094FF0024204609B0BDE8F083D5F804901523002255
:2054800001A9D9F80000D0F8008002A8CDE9013610F0AEFF019BDFF87CC0054602904FF03A
:2054A000000E0493B845BCE80F002860EB60DCF800009CF8043069602B75AA602861019B90
:2054C000029A039302F803E014D10298B042CFD00499013110F05FFF204609B0BDE8F08349
:2054E000404602AA0121A0476DE702AA04212846A047B5E702AA48460221C047E5E700BF6C
:20550000948501087D030008113B000891560008C58501089885010808B5054B186810B1D7
:20552000FFF73CFF08B1002008BD6FF00C0008BD480700202DE9F04F8FB041B100F54057EB
:205540000546D7F84C01FDF74DFF041E04D1002420460FB0BDE8F08FD5F80480A346B8BF8F
:20556000C4F1000BC4F3C015D8F80030BBF1090FD3F8009055D9BBF1630F62D90DF1080A29
:2055800004AE2D22E91C5046029610F0AEFF3C4B3C49A3FB0B2364225B0902FB13B3029A09
:2055A0004FF0310B2A4401EB430011F8133053704378937082F800B0182300225046009356
:2055C0000DF1280B304B114610F0EAFF8246CDF820B005465AF8083B53454AD0089383686A
:2055E0000A936B68C5F800A0099300236B602B72264B994538D10898584503D00A9901317A
:2056000010F0C9FE0298B04203D00499013110F0C2FED7F84C01FDF785FE20460FB0BDE878
:20562000F08F0DF1080A04AE2D22691C50460BF1300B029610F059FF029A5FFA8BFB2A44AF
:20564000B8E70DF1080A04AE2D22A91C5046029610F04BFF0B4B029A03EB4B0113F81BB05B
:205660002A444B785370A5E7404608AA0421C847C1E7426851465846013211F0DEFCB0E712
:205680001F85EB51747B0108C88501087D030008034B186808B1FFF74DBF6FF00A007047AB
:2056A000480700202DE9F04F91B01546BDF8689051B11F460B7A0C4643F2CC0200EB03119D
:2056C00006460A44944205D0284611B0BDE8F04F0BF00EBF40F20C62284602FB03F8002381
:2056E0002A8908F1300131440BF0BEFF06EB0803A3F832066289A3F83696A3F834263A78D8
:2057000083F838267A7883F83926BA7883F83A26FA7883F83B26776864893B68092C1B6862
:20572000039340F28F80632C66D9B4F57A7FC0F0858042F20F739C428BBF4FF004094FF004
:205740000309052104210DF1100806AE2D22DFF814A14046049610F0C8FE09F1FF32DDF867
:2057600010B04FF06409DFF800E142F20F705A44AAFB041321465B09814209FB134C1C46A5
:205780003EF81C3022F80239F2D8B1F57A7F40D23034E4B200221B238BF800404046009381
:2057A00011462E4B0DF1300910F0FAFE8046CDF82890044658F8083B434538D00A938368B2
:2057C0000C936368039A0B930023C4F8008063602372234B9A4224D10A98484503D00C9987
:2057E000013110F0D8FD0498B0423FF46DAF0699013110F0D0FD67E70DF1100806AE2D22C0
:2058000002214046049610F070FEDDF810B0DFF858E00EEB44031EF814405B788BF8013002
:20582000B8E738460AAA0121039B9847D4E7426841464846013211F000FCC2E74FF002095B
:20584000032180E70DF1100806AE2D2201214046049610F04AFEDDF810B099E7E485010893
:205860007D0300081F85EB51747B0108064930B40C68BDF808502CB101460295204630BC07
:20588000FFF710BF30BC7047480700202DE9F04700F540568EB00446D6F84C01FDF734FD91
:2058A00068B12046FEF776F9054640B143F29001D6F8A03021449847B0F1000904D10EB0E4
:2058C000BDE8F0470EF0A2BA6668C9F3C01AB8BFC9F100093368B9F1090F1F6859D9B9F134
:2058E000630F68D90DF1080804AC2D220AF103014046029410F0F9FD3F4B6421029AA3FB8E
:20590000090352445B0901FB13933C494FF0310901EB430011F8131043785170937082F88D
:20592000009028230022404600930DF1280A344B114610F035FE8146CDF820A0804659F8B5
:20594000083B4B454BD0089383680A93D8F80430C8F8009009930023C8F8043088F8083077
:20596000284B9F4242D10898504503D00A99013110F011FD0298A04203D00499013110F0B7
:205980000AFD28460BF0B4FD0EB0BDE8F0470EF03DBA0DF1080804AC2D220AF101014046C7
:2059A00009F13009029410F0A0FD029B5FFA89F903EB0A02B3E70DF1080804AC2D220AF16D
:2059C00002014046029410F090FD0C4B029A03EB490113F8199052444B7853709FE74268F0
:2059E00049465046013211F028FBAFE7304608AA0421B847B7E700BF1F85EB51747B010814
:205A0000008601087D030008044B1B682BB103F54053D3F84C01FDF783BD704748070020C4
:205A200010B5164C86B016496A462046FAF77CFE01AA144904F11800FAF776FE02AA1249A8
:205A400004F13000FAF770FE03AA104904F14800FAF76AFE04AA0E4904F16000FAF764FE79
:205A600005AA0C4904F17800FAF75EFE0A4A0B49002006B0BDE8104010F088BC4C0700203E
:205A8000487B01084C7B0108547B01085C7B0108647B01086C7B0108000000206D3B00080A
:205AA000002201234FF0FF318262428680F83430416280F83030704738B5084CA4F190050C
:205AC000183C234653F8080B984203D0A168013110F061FCAC42F3D138BD00BF6C0800206C
:205AE00082B0844610B50DF1080E4160214C4EF8043F0CF10C03CCF800400024CCF808201A
:205B00000CF114029EE803000CF11C0E83E8030005A903C982E8030007A903C98EE8030078
:205B2000DCF814100120ACF8324001F178418CF834008CF830004FF0FF30B1F5001FCCF828
:205B40002400CCE90A440CD30B480C49CCE9050192E8030083E80300BDE81040604602B0A4
:205B60007047DCF8181001F17841B1F5001FEBD2F2E700BF5C86010800000408FFFF1F0891
:205B800038B5044680680D4603685B68984729460220D4E9092308F0E3FAA36804461A6860
:205BA0001846D3689847B4FA84F0400938BD00BF10B590F830402CB108F082FA08F09CFAB2
:205BC000204610BD438E0422C16AFFF7D9FF044608F076FA08F090FA204610BD2DE9F04FE6
:205BE000D0F804B093B009290546DBF800300C4604921B68039340F2B080632940F288803D
:205C0000B1F57A7FC0F0A58042F20F7399428BBF4FF004084FF003080521042106AE08AFEA
:205C20002D22DFF858A13046069710F05EFC08F1FF3C069B22464E484FF064099C4442F245
:205C40000F78CDF814B0AAFB02E196464909C64509FB112B0A4630F81B102CF80219F2D887
:205C6000BEF57A7FDDF814B05DD23032D2B21A7000220723304611460DF1380900933D4BCD
:205C800010F08EFC8246CDF8309080465AF8083B534557D00C9383680E93D8F80430039A47
:205CA0000D930023C8F800A0C8F8043088F80830314B9A423ED10DF130080C98484503D074
:205CC0000E99013110F067FB0698B84203D00899013110F060FB049B0022A8681B1B0E9447
:205CE00001330F9303685B680C920222109298473146404608F01EFBAB6804461A68184612
:205D0000D3689847B4FA84F0400913B0BDE8F08F06AE08AF2D2202213046069710F0E5FB47
:205D2000069B2246124800EB420110F81220497859709CE70DF1300858460221039B42466E
:205D40009847BAE7426851464846013211F075F9A3E74FF00208032160E706AE08AF2D225A
:205D600001213046069710F0C0FB069B22467CE7747B01084C8601087D0300081F85EB518C
:205D80002DE9F0470546C0691E4682422B6A34BF002001209A4288BF002008B9BDE8F08731
:205DA000002945D005F11403D3E900138A4234BF4FF0000C4FF0010C9A4288BF4FF0000C05
:205DC000BCF1000FEAD000212A480F46041D50F831309A4204D354F831309A4298BF8FB2C7
:205DE00001310C29F3D150F8373095F83410D21A22F003084FEA920902F003049844D1B1C4
:205E0000002385F8343008F047F908F063F93A4639462846FFF7E2FEC5F828906F86C5F888
:205E20002C802A19002382F8246085F83030B5E705F10C03B8E7AA6A6B8E914516D0042246
:205E4000E96A2846FFF79CFE6B8E8246BB4204D150464FF0FF336B62DEE701333A462846A3
:205E600099B2FFF7BBFE0028F3D0F1E79F42E6D16046D6E76886010810B5164C86B01649B7
:205E80006A462046FAF750FC01AA144904F11800FAF74AFC02AA124904F13000FAF744FC06
:205EA00003AA104904F14800FAF73EFC04AA0E4904F16000FAF738FC05AA0C4904F1780084
:205EC000FAF732FC0A4A0B49002006B0BDE8104010F05CBADC070020487B01084C7B01087B
:205EE000547B01085C7B0108647B01086C7B010800000020B95A000872B6704762B6704729
:205F000007F02ABA38B5002465B20134284607F00BFA284607F048FA6E2CF5D138BD00BF24
:205F2000F0B51E46012387B00446934000229DF83450838002609DF830700592CDE901229B
:205F4000CDE9032200F018F81DB1012D0CBF012502250323002FA28801A9049314BF12238A
:205F60000223206005960192CDE9023508F04CFA204607B0F0BD00BF014B53F8210070472B
:205F8000080000200189406808B508F0DBFB003818BF012008BD00BF30B51C46012387B0C6
:205FA00005469340043083800023CDE90133CDE903330593FFF7E0FF1CB1012C0CBF01243C
:205FC000022400222B8901A968600193CDE9022408F01AFA07B030BD38B500250446456032
:205FE0000581034D0560FFF7D7FF204638BD00BFE8860108A1F1010201894068B2FA82F222
:20600000520908F0B3BB00BF0189406808B508F099FB003818BF012008BD00BF018940689F
:2060200008F0BEBB70B51E4601230446002503FA02F20F4B86B045602360043022810095BE
:20604000CDE90155CDE90355FFF796FFAE422289694614BF112301236060CDE9002300226B
:206060000323CDE9022308F0CFF9204606B070BDF486010838B5154CA4F5A87554F8083CFF
:20608000543C23B104F14401032208469847E36B23B104F13401032208469847E36A23B151
:2060A00004F12401032208469847E36923B104F11401032208469847E3681BB1211D03227E
:2060C00008469847AC42D9D138BD00BFBC090020032800D970472DE9F0474FF054098B4FE4
:2060E0000B6886B009FB00F980460D4602AC47F80930002309F1040A02930593BA44CDE9AF
:206100000333CB68002B00F0F2800222043120469847EA68D5F810C054236E4603FB087358
:2061200094E80300043386E8030093E8030084E8030096E8030083E80300DAF80830CAF890
:206140000820DAF80C200493CAF80CC005921BB10322214620469847002309F1140A0293F0
:20616000BA44C4E901330593EB69002B00F0CA80022205F1140120469847EA69D5F820C07B
:20618000542303FB087394E80300143386E8030093E8030084E8030096E8030083E80300FC
:2061A000DAF80830CAF80820DAF80C200493CAF80CC005921BB10322214620469847002371
:2061C00009F1240A0293BA44C4E901330593EB6A002B00F09480022205F124012046984783
:2061E000EA6AD5F830C0542303FB087394E80300243386E8030093E8030084E8030096E8EC
:20620000030083E80300DAF80830CAF80820DAF80C200493CAF80CC005921BB10322214607
:2062200020469847002309F1340A0293BA44C4E901330593EB6B002B5ED0022205F13401B4
:2062400020469847EA6BD5F840C0542303FB087394E80300343386E8030093E8030084E8A6
:20626000030096E8030083E80300DAF80830CAF80820DAF80C200493CAF80CC005921BB1B2
:206280000322214620469847002309F144090293B944C4E901330593EB6C5BB3022205F139
:2062A000440120469847EB6C2A6D542101FB087794E80300443786E8030097E8030084E81D
:2062C000030096E8030087E80300D9F80850C9F80830D9F80C300495C9F80C2005931DB1AD
:2062E000032221462046A84706B0BDE8F0871A469C4611E71A46D8E71A469C46A5E71A4664
:206300009C4670E71A469C463AE700BF6C0800200B4B10B503F5A87182B004461A6894428E
:2063200004D054338B42F9D102B010BDDA68002AFAD01A6901A9181D01949047F4E700BF4E
:206340006C0800200B4B10B503F5A87182B004461A68944204D054338B42F9D102B010BD38
:20636000DA6B002AFAD01A6C01A903F1340001949047F3E76C0800200B4B10B503F5A87186
:2063800082B004461A68944204D054338B42F9D102B010BDDA6C002AFAD01A6D01A903F159
:2063A000440001949047F3E76C0800200B4B10B503F5A87182B004461A68944204D0543364
:2063C0008B42F9D102B010BDDA69002AFAD01A6A01A903F1140001949047F3E76C08002060
:2063E0000B4B10B503F5A87182B004461A68944204D054338B42F9D102B010BDDA6A002ABE
:20640000FAD01A6B01A903F1240001949047F3E76C080020174A002330B502F5A8751146BD
:2064200002F1140402F1240E02F1340C02F14400543241F8043BAA4242F8503CC1E9013334
:2064400042E91133C4E9013342E90D33CEE9013342E90933CCE9013342E90533C0E9013306
:2064600042F8043CDBD1044A00200449BDE830400FF08CBF6C08002000000020756000084B
:20648000704700BF334B8CB01A6B42F001021A631A6B02F001020192019A1A6B42F0020232
:2064A0001A631A6B02F002020292029A1A6B42F004021A631A6B02F004020392039A1A6B46
:2064C00042F008021A631A6B02F008020492049A1A6B42F010021A631A6B02F010020592E8
:2064E000059A1A6B42F020021A631A6B02F020020692069A1A6B42F040021A631A6B02F0E9
:2065000040020792079A1A6B42F080021A631A6B02F080020892089A1A6B42F480721A63EA
:206520001A6B02F480720992099A1A6B42F400721A631A6B02F400720A920A9A1A6B42F41E
:2065400080621A631B6B03F480630B930B9B0CB0704700BF00380240184B86B05A6C42F0FB
:2065600010025A645A6C02F010020192019A1A6C42F400321A641A6C02F400320292029A09
:206580001A6C42F480221A641A6C02F480220392039A1A6C42F080421A641A6C02F080429D
:2065A0000492049A1A6C42F000421A641B6C03F000430593059B06B0704700BF0038024094
:2065C000134B84B01A6C42F400121A641A6C02F400120092009A1A6C42F480021A641A6CE1
:2065E00002F480020192019A1A6C42F400021A641A6C02F400020292029A1A6C42F0807261
:206600001A641B6C03F080730393039B04B0704700380240404B8EB05A6C42F001025A64F4
:206620005A6C02F001020092009A1A6C42F001021A641A6C02F001020192019A1A6C42F0D9
:2066400002021A641A6C02F002020292029A1A6C42F004021A641A6C02F004020392039A20
:206660001A6C42F008021A641A6C02F008020492049A1A6C42F010021A641A6C02F0100252
:206680000592059A1A6C42F020021A641A6C02F020020692069A5A6C42F002025A645A6C1A
:2066A00002F002020792079A5A6C42F480325A645A6C02F480320892089A5A6C42F4003266
:2066C0005A645A6C02F400320992099A5A6C42F480225A645A6C02F480220A920A9A1A6C50
:2066E00042F040021A641A6C02F040020B920B9A1A6C42F080021A641A6C02F080020C925C
:206700000C9A1A6C42F480721A641B6C03F480730D930D9B0EB07047003802401C4B86B062
:206720005A6C42F480525A645A6C02F480520092009A1A6C42F480421A641A6C02F48042D9
:206740000192019A1A6C42F400421A641A6C02F400420292029A5A6C42F400525A645A6CCF
:2067600002F400520392039A5A6C42F480125A645A6C02F480120492049A5A6C42F40012C3
:206780005A645B6C03F400130593059B06B070470038024030B5054685B01A4C06F012FD7B
:2067A0002846FFF76FFEFFF7D7FEFFF709FFFFF7B5FF236B43F400132363236B03F400139F
:2067C0000293029B236B43F480032363236B03F480030393039BFFF71DFF236B43F48053D3
:2067E0002363236B03F480530193019B636C43F480636364636C03F480630093009B05B04F
:2068000030BD00BF0038024038B5114CA4F5CC7554F8083C0322443C1BB104F134010846B5
:20682000984704F12401E36A0322084603B1984704F11401E3690322084603B19847211D72
:20684000E3680322084603B19847AC42E0D138BD540B0020144A002310B502F5CC74114600
:2068600002F1140E02F1240C02F13400443241F8043BA24242F8403CC1E9013342E90D33E8
:20688000CEE9013342E90933CCE9013342E90533C0E9013342F8043CE1D1044A0020044996
:2068A000BDE810400FF072BDBC090020000000200968000838B5074CA4F58275211DE368DE
:2068C0000322084603B19847A4F11403AC421C46F4D138BD580C00200A4B002203F58C700D
:2068E00019461433834241F8042B43F8102CC1E9012243F8042CF3D1034A002003490FF09A
:2069000045BD00BF540B002000000020B568000838B5164CA4F5137500E01C46E36C23B11D
