:020000040800F2
:200000000000082039D50008AD0A0008B10A0008B50A0008B90A0008BD0A000800000000BF
:20002000000000000000000000000000C10A0008C50A000800000000C90A0008A579000815
:2000400035D5000835D5000835D5000835D5000835D5000835D5000835D5000835D5000810
:2000600035D5000835D5000835D50008757400085974000835D5000835D5000835D500084E
:2000800035D500089174000835D5000835D5000835D5000835D5000835D5000835D50008D5
:2000A00035D500088D75000835D5000835D50008B168010835D5000835D50008C974000875
:2000C000E5740008017500081D750008A9750008C575000835D5000835D5000835D5000809
:2000E00035D5000835D5000835D50008517600086D7600088976000835D5000835D50008E5
:2001000035D5000835D5000835D50008E175000835D5000835D500087175000835D5000827
:20012000AD74000835D5000835D5000835D5000835D50008D15F000835D5000835D50008F2
:2001400035D5000835D5000835D5000835D5000835D5000835D5000835D5000835D500080F
:2001600035D5000835D5000835D5000835D5000835D5000835D5000835D5000835D50008EF
:2001800035D5000835D5000835D500083D740008FD750008197600083576000835D500089A
:2001A00035D5000835D5000835D5000835D5000835D5000835D5000835D50008397500080B
:2001C0005575000835D500080000000035D5000835D5000835D5000835D5000835D50008E1
:2001E00035D5000835D5000835D5000835D5000835D5000835D5000822000000FFFFFFFF75
:2002000010B5054C237833B9044B13B10448AFF300800123237010BD080100200000000013
:20022000FC01000808B5034B1BB103490348AFF3008008BD000000000C010020FC01000832
:2002400053B94AB9002908BF00281CBF4FF0FF314FF0FF3000F074B9ADF1080C6DE904CEC8
:2002600000F006F8DDF804E0DDE9022304B070472DE9F047089D04468E46002B4DD18A425C
:20028000944669D9B2FA82F252B101FA02F3C2F1200120FA01F10CFA02FC41EA030E94403B
:2002A0004FEA1C48210CBEFBF8F61FFA8CF708FB16E341EA034306FB07F199420AD91CEB06
:2002C000030306F1FF3080F01F81994240F21C81023E63445B1AA4B2B3FBF8F008FB1033AA
:2002E00044EA034400FB07F7A7420AD91CEB040400F1FF3380F00A81A74240F2078164444C
:20030000023840EA0640E41B00261DB1D4400023C5E900433146BDE8F0878B4209D9002DA9
:2003200000F0EF800026C5E9000130463146BDE8F087B3FA83F6002E4AD18B4202D38242AB
:2003400000F2F980841A61EB030301209E46002DE0D0C5E9004EDDE702B9FFDEB2FA82F2E8
:20036000002A40F09280A1EB0C014FEA1C471FFA8CFE0126200CB1FBF7F307FB131140EA00
:2003800001410EFB03F0884208D91CEB010103F1FF3802D2884200F2CB804346091AA4B263
:2003A000B1FBF7F007FB101144EA01440EFB00FEA64508D91CEB040400F1FF3102D2A64552
:2003C00000F2BB800846A4EB0E0440EA03409CE7C6F12007B34022FA07FC4CEA030C20FAC2
:2003E00007F401FA06F31C43F9404FEA1C4900FA06F3B1FBF9F8200C1FFA8CFE09FB18114C
:2004000040EA014108FB0EF0884202FA06F20BD91CEB010108F1FF3A80F08880884240F21E
:200420008580A8F102086144091AA4B2B1FBF9F009FB101144EA014100FB0EFE8E4508D911
:200440001CEB010100F1FF346CD28E456AD90238614440EA0840A0FB0294A1EB0E01A1421B
:20046000C846A64656D353D05DB1B3EB080261EB0E0101FA07F722FA06F3F1401F43C5E9D6
:20048000007100263146BDE8F087C2F12003D8400CFA02FC21FA03F3914001434FEA1C477E
:2004A0001FFA8CFEB3FBF7F007FB10360B0C43EA064300FB0EF69E4204FA02F408D91CEB74
:2004C000030300F1FF382FD29E422DD9023863449B1B89B2B3FBF7F607FB163341EA0341E0
:2004E00006FB0EF38B4208D91CEB010106F1FF3816D28B4214D9023E6144C91A46EA004635
:2005000038E72E46284605E70646E3E61846F8E64B45A9D2B9EB020864EB0C0E0138A3E7B8
:200520004646EAE7204694E74046D1E7D0467BE7023B614432E7304609E76444023842E75B
:20054000704700BF00000000000000000000000001F0FF01102A2BDB10F0070F08D010F8FE
:20056000013B013A8B422DD010F0070F42B3F6D1F0B441EA012141EA014122F007047FF07E
:2005800000070023F0E80256083C85EA010586EA010685FA47F5A3FA87F586FA47F6A5FAA1
:2005A00087F68EB9EED1F0BC01F0FF0102F0070232B110F8013B013A83EA010313B1F8D1C0
:2005C0000020704701387047002D06BF35460338073815F0010F07D1013015F4807F02BF86
:2005E000013015F4C03F0130F0BC0138704700BF034613F8012B002AFBD1181A013870479E
:20060000704700BF38B5084CA4F19005183C234653F8080B984203D0A168013116F059F99E
:20062000AC42F3D138BD00BFB4010020C0E9012301230160002180F82C30009B8162C36097
:20064000019B0361029BDDE903124361059BC0E906120362704700BF2DE9F04FD0F80080A5
:200660008CB291B00746D8F80030092C03911B68029340F28F80632C69D9B4F57A7FC0F069
:20068000A18042F20F739C4240F28F8004AD06AE2D220521284604964FF0040916F069FACD
:2006A000DDF810E00EEB09034848DFF82CB14FF0640A42F20F79ABFB0412A446023B520985
:2006C000CC450AFB1241144600EB410210F81110527859709A70EED8BCF57A7F42D230347B
:2006E0008EF8004000220A2328460DF1300900931146374B16F094FA0546CDF8289004462E
:2007000055F8083BAB423DD00A9383680C936368029A0B9300232560636023722D4B9A42CF
:200720002AD10A98484503D00C99013116F0D1F80498B04203D00699013116F0CAF80123F8
:20074000039A87F82C30BA6211B0BDE8F08F04AD06AE2D2202212846049616F00AFADDF862
:2007600010E01A4800EB440310F814205B788EF800208EF80130B5E740460AAA0221029BF3
:200780009847CEE7CC4680686968AA68EB68ACE80F00BCE704AD06AE2D2201212846049671
:2007A00016F0E7F9DDF810E099E74FF00309042104AD06AE2D222846049616F0DAF9DDF834
:2007C00010E06FE74FF002090321F1E750800108EC7F0108010600081F85EB5110B5044642
:2007E00000690022036811461B68984728B120460321BDE81040FFF72FBF20460621BDE8DC
:200800001040FFF729BF00BF70B5C56804462B6828461A685E68904701462846B04702463B
:200820002069012105682B68984728B120460421BDE87040FFF710BF20460721BDE87040CD
:20084000FFF70ABF38B5044621B1406803681B6898476062206A03689B689847012810D0B9
:200860006068002341F2883204F1240105686D68A84700B938BD20460521BDE83840FFF708
:20088000EBBE20460821BDE83840FFF7E5BE00BF10B5044640690122036811461B689847AC
:2008A00028B120460521BDE81040FFF7D5BE20460921BDE81040FFF7CFBE00BF70B5C5683C
:2008C00004462B6828461A685E68904701462846B04702466069012105682B68984728B117
:2008E00020460521BDE87040FFF7B6BE20460921BDE87040FFF7B0BE38B50446006A036858
:200900009B68984750B90546A06803685B69984729462046BDE83840FFF79EBE38BD00BF93
:200920000022836A90F82C1010B5044680F82C20092B0CD8DFE803F00C111C2024282E323A
:200940003605006A03689B689847012834D010BD0121BDE81040FFF77FBEC06903681B684A
:20096000984718B320460221BDE81040FFF774BEBDE81040FFF732BFBDE81040FFF744BF5D
:20098000BDE81040FFF75EBF80690368BDE810401B681847BDE81040FFF77ABFBDE810400B
:2009A000FFF78CBFBDE81040FFF7A6BF20460921BDE81040FFF750BE20460821BDE8104099
:2009C000FFF74ABEFFF7ACBFF0B500F1080783B0076031B3044608460E46FFF709FE0F2875
:2009E000054601900CD8012807D1337823720023204665607B5503B0F0BD0028F7D008E0A1
:200A0000002201A9204616F03BF8019B07462060A3602A463846314616F03CFA019D276831
:200A2000E5E7014815F06EFFF87F010810B5164C82B0164901AA2046FFF7C6FF01AA144923
:200A400004F11800FFF7C0FF01AA124904F13000FFF7BAFF01AA104904F14800FFF7B4FF10
:200A600001AA0E4904F16000FFF7AEFF01AA0C4904F17800FFF7A8FF0A4A0B49002002B0F8
:200A8000BDE8104015F020BF24010020248001082880010830800108388001084080010897
:200AA000488001080000002005060008704700BFFEE700BFFEE700BFFEE700BFFEE700BF2C
:200AC000704700BF704700BF704700BF38B5084CA4F19005183C234653F8080B984203D081
:200AE000A168013115F0F5FEAC42F3D138BD00BF4402002070B5044600250E466422002168
:200B000016F0F0F93222294604F16600A4F8645016F0E8F92046C4E9265670BD0023C0F8FA
:200B20009830A0F8643070472DE9F0410546134CD0F8980004402243C5F89820DBB1013BD3
:200B40004C1EC1F1010711FA83F603E0B44212D0D5F89820D5F89C0007EB040E002114F813
:200B6000013FD0F800C07244DCF80880C0470028ECD1BDE8F0810120BDE8F0810000FFFF64
:200B8000002B5DD04FF0000C30B5604614464FF0010E13E02278A2F13005EDB2092D2DD850
:200BA00045EA0C0C421C01F800C090B20EF10102734504F1010492B21FD996460EF1FF3299
:200BC00012F00102E6D12578A5F1300C5FFA8CFCBCF1090F06D9A5F1610CBCF1050F17D8B2
:200BE000A5F1570C4FEA0C1C0EF10102734504F101045FFA8CFC92B2DFD830BDA2F1610525
:200C0000052D11D8573A4CEA020C5FFA8CFCC9E7A5F1410CBCF1050F10D8A5F1370C4FEAB5
:200C20000C1C5FFA8CFCC1E7A2F14105052DB9D8373A4CEA020C5FFA8CFCB3E79446B5E7C1
:200C400018467047B1F801204FF000034FEA122C6CF3070391F803C062F30F239AB2A1F8DB
:200C60000130BCF1050F04D8DFE80CF0241F030309060023184670470123184670478B8807
:200C80004FF000024FEA132C6CF3070210B463F30F22B0F89840012344EA02448A80C0F80E
:200CA000984018465DF8044B7047D0F89C0003685B68184711F8043BFFF736BFBAB3013AD7
:200CC0002DE9F04105464C1E00F1660811FA82F600270EE014F8012F0D2A13D00A2A03F1A3
:200CE00001010DD03A2A02D0A5F86410EA54B4421AD0B5F86430632BECD90020BDE8F081E6
:200D00000D2AF4D12A4641462846FFF739FF02462846FFF797FF18B9A5F86400BDE8F0811A
:200D2000B442A5F86470E4D10120BDE8F0810120704700BF10B5164C82B0164901AA204600
:200D4000FFF742FE01AA144904F11800FFF73CFE01AA124904F13000FFF736FE01AA1049BF
:200D600004F14800FFF730FE01AA0E4904F16000FFF72AFE01AA0C4904F17800FFF724FE18
:200D80000A4A0B49002002B0BDE8104015F09CBDB40100202480010828800108308001089A
:200DA00038800108408001084880010800000020CD0A0008012A08BF01600020704700BFF0
:200DC000704700BF012A08BF01600020704700BF08B5054B186803681B689847034B18688C
:200DE000FFF79CFE012008BD1C0300203803002003680968128810B4D3E900409B6810F0AA
:200E0000010F05D103EB600023465DF8044B18474FEA600C03EB600053F80C301C592346DA
:200E20005DF8044B184700BF012A38B5044603D10B680360002038BD022A08D0032AF9D1D4
:200E400000680028F6D00C2115F043FDF2E70D680C2015F040FD034695E80700236083E853
:200E60000700002038BD00BF38B5084CA4F19005183C234653F8080B984203D0A168013129
:200E800015F027FDAC42F3D138BD00BFD4020020836810B5044613B103220146984720465E
:200EA00010BD00BF00B583B0684605F0D1FD01A801F0D4FC684605F055FF01A801F020FD35
:200EC00003B05DF804FB00BF08B50CF0D3F90BF0A5FF194B18600BF071FF184B18600BF00B
:200EE00055FF174B18600CF0D7F8164B18600BF0A5FF154B18600CF01FF8144B18600BF0C4
:200F00006DFF134B18600CF03DF8124B18600CF067F8114B18600CF08FF8104B18600BF009
:200F20009FFF0F4B18600BF0A9FE0E4B18600CF04BF90D4B186008BD240300205C03002033
:200F4000E4020020E802002030030020D8020020280300202C03002034030020D40200204D
:200F6000480300201C0300201803002010B5164C82B0164901AA2046FFF726FD01AA1449A2
:200F800004F11800FFF720FD01AA124904F13000FFF71AFD01AA104904F14800FFF714FDB1
:200FA00001AA0E4904F16000FFF70EFD01AA0C4904F17800FFF708FD0A4A0B49002002B0F7
:200FC000BDE8104015F080BC440200202480010828800108308001083880010840800108D4
:200FE0004880010800000020690E00082DE980489BB0DFF880A3FFF755FFC04F0DF15009AE
:201000000DF1480BFFF760FFBD495A464846FFF7DBFC022148460BF00BFE0346484608EEA7
:20102000103A15F04FFD5A46B6494846FFF7CCFC022148460BF0FCFD0546484615F042FD68
:201040005A46B1494846FFF7BFFC022148460BF0EFFD0790484615F035FD5A46AB494846A1
:20106000FFF7B2FC002148460BF0E2FD0890484615F028FD5A46A6494846FFF7A5FC02211C
:2010800048460BF0D5FD0646484615F01BFD5A46A0494846FFF798FC022148460BF0C8FDEC
:2010A0000A90484615F00EFD9B4A106803681B6898470990BC2015F00EFC0446099900F06E
:2010C0006DFA2046CAF8004000F04EFA0446DAF800000368DB699847804640F21C4015F006
:2010E000FAFB8E4B8E490A9ACDE90048044609681B6800F0E7FA8B4B2046DFF87C821C600D
:2011000000F0E0FBDAF8000000F098FADAF80000854C43680430DB689847DAF800100DF12C
:20112000300C20604B6804316046804C5B699847BDF83430BB800C983860082015F0CBFB73
:20114000099000F0B1FF099B79490B60D8F8003097E80300744F109018463A680027ADF8D4
:2011600044100F921A68536898474FF0000C10ABE760A4F810C060826E4F93E803000F9BDE
:20118000606043F614502360FF232181638115F0A2FB3146064602F053FA43F250103E60F0
:2011A00015F099FB00942A46D8F800300546624E624C01933B68316804F0F0FB2560604D08
:2011C000604E2868604D0368604F9B689847524A09901368DFF8A4811A6818460B93116885
:2011E00092680A9288470B9B01460A9A184690474D4B57491B68099A1493222308724FF4BD
:201200004A604A600B6015F066FB079B48490293DAF8003082460A6804334D4903920493AC
:201220002368149A00934B4B019341F6A43300F09FFBA020C6F800A015F04DFB464B82465C
:201240001968FFF757FC4548C0F800A0302015F042FB82463022002115F044FEDAF80C30BD
:201260004FF0000C3E4A1793CDF858C03D4BC2F800A0CAF808303C4B99E80300CAF80C302F
:201280008BE803009AE8030089E803009BE803008AE803004846FFF7FBFD3048304A03680B
:2012A0000020D2F800A016900C20079315F013FB079B4FF0000C2D4AC0F804C083600AF167
:2012C000100314900260DFF8B8C0294A99E803008BE8030093E8030089E803009BE80300C1
:2012E00083E80300DAF8183048461693DAF81C30CAF818C01793CAF81C2043E04003002049
:201300001C8101082C8101083C810108548101086081010864810108D8020020E4020020F5
:20132000E8020020500300203C030020000300204C030020140300205C030020FC0200206B
:2013400048030020EC02002058030020DC020020F0020020040000201C03002038030020CB
:2013600054030020B50D0008D10D0008BD0C0008F10D0008E00200201803002028030020E7
:20138000290E0008FFF784FD3D4ADFF824C113683C4A03F1200E99E803008BE803009EE8B1
:2013A000030089E803009BE803008EE80300996A48461691D96AC3F828C01791DA62FFF7BF
:2013C00067FD40F6344015F086FA08992C4B8146009119682C4B2D4A1B680193236800F009
:2013E00095FE3020C5F8009015F075FA28498146284A0B6818EE101A04931368224A0093EB
:20140000254B12681B680393244B1B680293244B1B6801932B680593224B1B68FFF706F9AC
:201420000420C7F8009015F056FA814600F02AF91D4BC3F800901D4B18680368DB689847E2
:20144000206804F0D9FA184B3068196800F0EAFA286803681B689847206804F0F7FC306889
:2014600000F0B2FC286803685B6898473868FFF7A9FAD8F8000003681B689847ECE700BFC9
:2014800054030020C10D00085C0300203C03002048030020D8020020D4020020340300206F
:2014A0002C030020300300202003002024030020C50D000843681961704700BF436818695F
:2014C000704700BF82B04368196002B0704700BF4368002282B01B685FFA83FCC3F30720E1
:2014E000C3F307411B0E6CF3070260F30F2261F3174263F31F62104602B0704782B06B46B3
:2015000083E80600426893E803005060118102B0704700BF4A6803465068128918601846A4
:201520009A80704743685961704700BF43685869704700BF4368D960704700BF4368D868D8
:20154000704700BF0020704700207047002070470020704700207047D0F8A000704700BF04
:201560000020704700207047037B032B03D8DFE803F008060402002070475030704710301A
:2015800070477030704700BF037B032B02D8024A52F8232010467047A081010870B5224B56
:2015A000054604460E4645F8A43B0430294600F06FF81E4B002104F1100003F130022673DE
:2015C000C4E90032402215F08DFC2022002104F1500015F087FC3022002104F1700015F02F
:2015E00081FC0023C4F8A4306B61C5E90133C5E90333032E06D8DFE806F0110C0702002314
:20160000C4F8A030204670BD094B2046C4F8A03070BD084B2046C4F8A03070BD064B20460F
:20162000C4F8A03070BD00BF78810108B8810108C8920108F893010864930108037B012B4D
:2016400000B504D0022B13D07BB15DF804FB00F1100E00F1A40CBEE80F00ACE80F009EE8E3
:2016600003008CE803005DF804FB00F1700EF0E700F1500EEDE700BF0020704782B000204B
:2016800002B07047014B0360704700BF18820108014AC0E9002170473482010838B5084C4D
:2016A000A4F19005183C234653F8080B984203D0A168013115F00DF9AC42F3D138BD00BF8C
:2016C000F0030020C0E900128360DDE90023C0E9032370472DE9F0410546044684B0904604
:2016E00055F8140B08220E4603685F682B46B84718B1A269B2F5806F03D9002004B0BDE89F
:20170000F08106F10801264656F81C0B03685F683346B8470028F0D00023A068676929467B
:20172000A269237563750832A375E37503685B6898478742E1D13146A26968460AF04CF88E
:201740004246216968460AF001FED7E72DE9F043002189B0C2680546FFF7BCFF002835D01C
:20176000D5F804901E2304AF01A9D9F80020044602A8504DD2F800800022CDE9013715F089
:201780007FF9019B0290064604934FF0000EDFF828C10FCD3060E0457160B260F36007CD18
:2017A0002B8830617161B261B383019B029A039302F803E079D10298B84203D0049901319F
:2017C00015F087F8204609B0BDE8F0830646EA684FF480612846FFF77DFF044600283AD030
:2017E000D5F80480324604AF01A9D8F8003002A81E6836230297019315F042F9DFF8C0E056
:201800008446019B0EF130090290049375460CF1100C0EF1100E0FCD4D454CF8100C4CF8FE
:201820000C1C4CF8082C4CF8043CEFD1BEF804300021DEF80000ACF80430CCF80000019BAB
:20184000029A0393D1541C4B9E42B4D002AA40460321B047AFE7D5F804901C2304AF01A986
:20186000D9F80020154DD2F80080024602A8CDE9013715F005F9019B029006460493DFF800
:2018800038C00FCD3060E0457160B260F36007CD30617161B261019B029A0393D4548AD0EF
:2018A00002AA48460421C04785E702AA48460221C04780E75C82010801060008B482010856
:2018C0007C820108FFF742BF10B5164C82B0164901AA2046FFF778F801AA144904F11800C6
:2018E000FFF772F801AA124904F13000FFF76CF801AA104904F14800FFF766F801AA0E496C
:2019000004F16000FFF760F801AA0C4904F17800FFF75AF80A4A0B49002002B0BDE8104000
:2019200014F0D2BF600300202480010828800108308001083880010840800108488001081D
:20194000000000209D16000838B5084CA4F19005183C234653F8080B984203D0A16801313E
:2019600014F0B7FFAC42F3D138BD00BF800400202DE9F04383B0002504464FF4C0690A9FA3
:201980000E46838029460192143040F8142C40F2046240F8087C40F80E5C20F80A5C40F886
:2019A000045CDDF82C800D9F15F09CFA40F20462294604F5C360A4F8149615F093FA0C9B5D
:2019C00041463A46C4F8243C04F62C400E9BA4F8189CC4F8283CC4F81C5CC4F8208C00F0D9
:2019E00081FA3A46D4F8201C04F6644000F0B8FAE0682A4629460368C4F89C6C1B689847EC
:201A0000C4F81C0C18B1204603B0BDE8F0832021034809F045FB204603B0BDE8F08300BF33
:201A2000D48201082DE9F04F0B460446C06891B023610368A288D4F81C1C9B689847D4F823
:201A4000248CD4F81C2C0746D8F8003054891B68039300286DD0092C40F21A81632C40F257
:201A6000DB80B4F57A7FC0F01E8142F20F739C4240F2338104AD06AE2D22052128460496BE
:201A80004FF0040915F075F8DDF810E00EEB09039649DFF868B24FF0640A42F20F79ABFBDF
:201AA0000402A446023B5209CC450AFB1240144601EB400211F81000527858709A70EED833
:201AC000BCF57A7F80F0B38030348EF800400022252328460CAD00931146854B15F0A0F8A7
:201AE00084460A9504465CF8083B634500F0AF800A9383680C936368039A0B930023C4F8C9
:201B000000C0636023727B4B9A4240F09A800A98A84203D00C99013114F0DBFE0498B04220
:201B200003D00699013114F0D4FE384611B0BDE8F08F092C40F2A180632C58D9B4F57A7FDE
:201B4000C0F0CF8042F20F739C4240F2B98004AD06AE2D220521284604964FF0040915F054
:201B600008F8DDF810E00EEB09036049DFF88CB14FF0640A42F20F79ABFB0402A446023BA2
:201B80005209CC450AFB1240144601EB400211F81000527858709A70EED8BCF57A7F31D2D2
:201BA00030348EF8004000222D2328460CAD00931146514B15F034F884460A9504465CF8A4
:201BC000083B63454ED00A9383680C936368039A0B930023C4F800C063602372454B9A426C
:201BE00095D040460AAA0421039B98478FE704AD06AE02212D222846049614F0BAFFDDF8BD
:201C000010E03A4901EB440311F814205B788EF800208EF80130C6E704AD06AE02212D222D
:201C20002846049614F0A5FFDDF810E02F4901EB440311F814205B788EF800208EF8013017
:201C400045E740460AAA0121039B98475FE7AE468068DCF80410DCF80820DCF80C30AEE8D3
:201C60000F0048E7AE468068DCF80410DCF80820DCF80C30AEE80F00A8E704AD06AE2D226E
:201C800001212846049614F074FFDDF810E087E704AD06AE2D2201212846049614F069FF26
:201CA000DDF810E010E74FF00209032104AD06AE2D222846049614F05CFFDDF810E0E5E64F
:201CC0004FF00309042104AD06AE2D222846049614F04FFFDDF810E045E74FF00309042125
:201CE000E4E74FF002090321EDE700BF508001085083010801060008788301081F85EB5170
:201D000070B50546012100F6644000F041F9D5F89C3C0121D5F8282C04460170197A1668B9
:201D2000017419688160104659687368E16098472B6960601A681846136898472B696074C4
:201D40001A681846536898472B69A0741A681846D3689847E074C0F30722C0F30743C0F387
:201D6000076022756375A075286903689B6898472B69E0751A68184613699847A06170BD48
:201D800030B5044685B0FFF7BBFF04F5C36503ABB4F8182C04F66440294600F067F980B1E2
:201DA000E1682A46D4F80600BDF80C300D68A4F81A3C0090084661890191D4F81C1C2C694D
:201DC000A04705B030BD00BF70B5044684B0C068B4F8143604F1140502680293A31DCDE977
:201DE000003504F10A03D668D4F81C1CA288B04708B1A37D0BB104B070BD0246294604F622
:201E00002C4000F0E3F80028F5D0204604B0BDE87040FFF7B5BF00BF10B5164C82B016494E
:201E200001AA2046FEF7D0FD01AA144904F11800FEF7CAFD01AA124904F13000FEF7C4FD1D
:201E400001AA104904F14800FEF7BEFD01AA0E4904F16000FEF7B8FD01AA0C4904F1780023
:201E6000FEF7B2FD0A4A0B49002002B0BDE8104014F02ABDF00300202480010828800108F3
:201E800030800108388001084080010848800108000000204919000810B586B0044601A8B6
:201EA0000AF0E2FA054904F11C0201A80AF03EFE08B1049B238106B010BD00BF189101081C
:201EC00010B5044684B02289684609F085FC04F11C02034968460AF039FA04B010BD00BF72
:201EE000189101088C4613460021624610B5044600F05CF8002206492346204643F81C1B37
:201F0000E261C3E90122C3E90322C3E9052210BDB083010810B586B0044601A80AF0A4FA7C
:201F2000054904F11C0201A80AF000FE08B1049B238106B010BD00BF1891010810B50446A0
:201F400084B02289684609F047FC04F11C02034968460AF0FBF904B010BD00BF18910108CB
:201F60008C4613460121624610B5044600F01EF8002206492346204643F81C1BE261C3E9B6
:201F80000122C3E90322C3E9052210BDC0830108034609B91C30704700221C30DA61C0E901
:201FA0000122C0E90322C0E90522704710B4064C017100210460C1805DF8044B8361C0E92A
:201FC0000211C0E904127047D083010821B370B5154603794A8806460C469A4201D000200F
:201FE00070BD0A88A2F10803C2804069338103681B6898470028F2D106F10C0320686168D6
:2020000003C3F388AB42EAD1336804F1080130465B68BDE8704018470020704770B50389C9
:20202000044680690D4622790833E2819BB202681268E380A38190476269002104F10C0362
:202040002082618211680E6803CB2860104669602946E288B04704F10C026082034603CACC
:20206000638128600120696070BD00BFA1B1083A70B51E4603680C4608311B68054698475E
:2020800008B9002070BD2B892146284608333360BDE87040FFF7C2BF0020704783880246E5
:2020A000013398B2908070470249002201608280704700BFE083010810B4D0F8183C012424
:2020C00000214522C0F80C4C1C6880F82E1CD0F8241C1846A3685DF8044B184790F82E0CEC
:2020E000704700BF38B5084CA4F19005183C234653F8080B984203D0A168013114F0E9FB14
:20210000AC42F3D138BD00BF100500202DE9F0411D461F4B04464FF4C06840F8043B0F468F
:202120001646002140F2046214F0DCFE40F20462002104F5C160A4F8048614F0D3FE069B3D
:2021400000222846C4F81C3C079B1146A4F8088CC4F8203C2B68C4F8107C1B68C4F8146C00
:20216000C4F8185CC4F8242CA4F8282C9847C4F8240C40B100220123204684F82E2CC4F839
:202180000C3CBDE8F0811421024808F089FFF1E708850108E483010830B501460024B0F80C
:2021A0000E0C4FF0000281F8084683B0040A042364F30702D1F8184C81F8093660F30F22CC
:2021C0002568A1F80A3CA1F80A26B1F8282C019201F5C162D1F82A0C009020462D69D1F8CD
:2021E000241CA84703B030BD30B5052204468D88002384F8092683B06A1C84F8083684F8E8
:202200000A36084684F80B3604F20C6192B214F0A7FDD4F8182CB4F8280C6B1D11689BB2E6
:202220000190D4F82A0CA4F80A3C009010460D6904F5C162D4F8241CA84703B030BD00BF57
:2022400010B54FF0000C0124D0F8101C0346B0F8062682B080F82ECCC0F80C4C886858B18B
:20226000A2F1020C0633CC6808460DF1020201A90193ADF802C0A04702B010BD2DE9F041AE
:20228000C1880446B0F80C3C4FF00002B0F80656080A88B060F3070261F30F2291B2A4F86C
:2022A0000E2C8B426CD0013BD4F81C8C04AE99422BD0D8F80020102301A902A8176800228B
:2022C0004C4DCDE9013614F0DBFB019B0290044604934FF0000EDFF824C10FCD206067457E
:2022E0006160A260E360019B029A039302F803E076D10298B04203D00499013114F0E9FAD1
:202300000025284608B0BDE8F081D8F800202723394D01A9176802A80022CDE9013614F0B6
:20232000AFFB019B044605F1200E02900493AC4610341035BCE80F00F44544F8100C44F8C5
:202340000C1C44F8082C44F8043CF0D1AB8800212868A380AB792060A371019B029A03931B
:20236000D154264B9F4240D10298B04203D00499013114F0AEFA0125284608B0BDE8F08199
:20238000D4F8100C2A1F0133856996B2A4F80C3C55B104F10803C56901AA103002A9ADF84F
:2023A00004600293A8470546B6F5007F0AD2D4F8100C836A13B1C36A20309847002384F850
:2023C0002E3C02E0012384F82E3CD4F8200C03681B689847C4F8300C284608B0BDE8F081AE
:2023E00002AA04214046B84783E702AA03214046B847B9E778840108508401080106000837
:202400002DE9F04F97B012238046824D06AA10A904A810930492002214F032FB109B0446C0
:202420000490069300264FF000070FCDE3602B8820606160A2602382109B049A0593D6543E
:20244000B8F80430D8F81C1C1A0A039162F3070763F30F270B68BFB21B68092F3C46029333
:2024600040F2BB80632F73D9B7F57A7FC0F0CD8042F20F739F4240F2BB800AAD0CAE2D22AB
:20248000052128460A964FF0040914F072FBDDF828E00EEB09036048DFF890B14FF0640AFC
:2024A00042F20F79ABFB0412A446023B5209CC450AFB1241144600EB410210F8111052783E
:2024C00059709A70EED8BCF57A7F4CD230348EF8004000221423284612AD009311464F4B67
:2024E00014F09EFB8446109504465CF8083B634568D01093836812936368029A11930023AE
:20250000C4F800C063602372454B9A4254D11098A84203D01299013114F0DBF90A98B042A8
:2025200003D00C99013114F0D4F9022F37D0032F23D004A94046FFF757FE049806AB98421E
:2025400003D00699013114F0C4F917B0BDE8F08F0AAD0CAE2D22022128460A9614F009FB32
:20256000DDF828E02C4800EB440310F814205B788EF800208EF80130ABE74046FFF77EFEE2
:2025800012230446059A00930021264B04A814F047FB002CCDD04046FFF7FEFDCDE740468C
:2025A000FFF74EFE15230446059A009300211E4B04A814F035FBECE710AA03980221029BD3
:2025C0009847A4E7AE468068DCF80410DCF80820DCF80C30AEE80F008EE70AAD0CAE2D22E7
:2025E000012128460A9614F0C4FADDF828E06DE74FF0030904210AAD0CAE2D2228460A967A
:2026000014F0B7FADDF828E043E74FF002090321F1E700BF8C84010850800108A0840108DA
:2026200001060008D0840108B88401081F85EB5130B5044685B0D0F8180C4522B4F804564C
:20264000231D0168CDE9013504F62A43009304F62843CD68D4F8241CA847A4F8060608B9ED
:2026600005B030BD204605B0BDE83040FFF7C8BE90F82E3C012B00D070472DE9F0430446D4
:20268000D0F8200C89B00023056843F6982204F543616D68A84710B909B0BDE8F083D4F8C3
:2026A0001C9C1A2304AF01A9D9F8002002A81B4DD2F800800022CDE9013714F0E1F9019BF1
:2026C0000646029004934FF0000EDFF854C00FCD3060E0457160B260F360029A019B03CD7E
:2026E0000393716129883061318302F803E00FD10298B84203D00499013114F0EAF8002281
:20270000012384F82E2CC4F80C3C09B0BDE8F08302AA48460321C047EAE700BFE484010884
:202720000106000810B50446FFF782FF2046BDE81040FFF79DBF00BF10B5164C82B01649E0
:2027400001AA2046FEF740F901AA144904F11800FEF73AF901AA124904F13000FEF734F9B0
:2027600001AA104904F14800FEF72EF901AA0E4904F16000FEF728F901AA0C4904F1780022
:20278000FEF722F90A4A0B49002002B0BDE8104014F09AB880040020248001082880010862
:2027A0003080010838800108408001084880010800000020E5200008007B7047022902D8A1
:2027C000024B585C70470120704700BF14850108084619B101290CBF08460220704700BF15
:2027E00038B50446406803681B689847012817D0606803681B6898470128054619D0606863
:2028000003681B68984710B10325257338BDA06803681B6898470128F6D10225257338BDFC
:20282000A06803681B6898470128E1D10025257338BDA06803681B6898470028DFD12573F1
:2028400038BD00BF044B10B504468260C0E90031FFF7C6FF204610BD20850108704700BF98
:2028600010B501208EB04FF4803202234FF480010024CDE9010208224FF4D8700494099291
:202880000722CDE907310921CDE90A0301A8CDE90C120DF015FE10B120460EB010BD0DF0F8
:2028A000D5FDB0FA80F040090EB010BD30B50F2087B0022100244FF4A0524FF48053CDE9C5
:2028C0000101072101A80593CDE903420EF0CEF810B1204607B030BD05460EF0E5F9074B8A
:2028E000A3FB003080090AF051FF2A4629464FF0FF300AF0C1FE012007B030BDD34D6210DA
:2029000010B582B00446FFF7ABFF10B9002002B010BD2046FFF7CAFF0028F7D001900AF0CF
:20292000D1FD019802B010BD70B500230D4D0C46061D45600121202503810361802385611D
:2029400015464162C36130460AF0AAFF10B14FF0FF3070BD2A46214630460BF021F8C0437C
:2029600070BD00BF00300240521A70B5541C02685568124A95421BD1034600220E4610499A
:2029800002811D1D4160202001211A618022986159622846DA610AF083FF10B14FF0FF3052
:2029A00070BD2246314628460AF0FAFFC04370BD22462B46BDE87040184700BF29290008D4
:2029C0000030024090F86400B0FA80F04009704718300CF027BF00BF18300DF0A7BC00BF2F
:2029E0000368D3E900209B68C10702D403EB60001047411003EB60005B589A58104700BFF0
:202A0000012A38B5044603D10B680360002038BD022A08D0032AF9D100680028F6D00C2117
:202A200013F057FFF2E70D680C2013F054FF034695E80700236083E80700002038BD00BFD7
:202A40000368D3E900209B68C10702D403EB60001047411003EB60005B589A58104700BF8F
:202A6000012A38B5044603D10B680360002038BD022A08D0032AF9D100680028F6D00C21B7
:202A800013F027FFF2E70D680C2013F024FF034695E80700236083E80700002038BD00BFD7
:202AA00038B5084CA4F19005183C234653F8080B984203D0A168013113F00BFFAC42F3D1E9
:202AC00038BD00BFA00500202DE9F041D0F8048088B01A230022D8F8001004AE02A8174CB4
:202AE0000F6801A9CDE9013613F0CAFF019B0546029004934FF0000EDFF844C00FCC286061
:202B000067456960AA60EB60029A019B03CC0393696121882861298302F803E009D1029855
:202B2000B04203D00499013113F0D3FE08B0BDE8F08102AA02214046B847F0E73C8501086A
:202B400001060008F0B5476887B004460A21386802AD124A4FF0000E06682B46DFF840C0B8
:202B6000CDE90051664507CA03C31A808DF812E004D1002384F8643007B0F0BD38466A4661
:202B80000421B0470098A842F3D00299013113F0A0FE002384F8643007B0F0BD58850108E9
:202BA000010600082DE9F04F1546A7B04FF4FA7206460C4600930292AAB20223183001922F
:202BC0008AB2A0210CF0B2FC18B1002027B0BDE8F08F7368092D07931B681B68049340F2F0
:202BE000D381632D40F23D81B5F57A7FC0F0DF8142F20F739D4240F2D4812A460121B54E9D
:202C0000B548B64FDFF8E8E2DFF8E88208E0BB4240F256817345C0F05681434540F28D81DB
:202C20001346A6FB02C28C46043183424FEA5232EDD81AA81CAB0022DFF8BC82069005939A
:202C40001A9313F096FF1B9A4FF0640EDDF8689042F20F7C013A0698A1494A44A8FB0563E1
:202C60002F46023A5B0967450EFB13561D4601EB460311F816605B7856709370EED8B7F5FC
:202C80007A7F80F0FB80303589F800500022082316AF00931146934B13F0C2FF0646149785
:202CA000054656F8083BB34200F05B811493836816936B68159300232E606B60159A2B72F9
:202CC0006FF040439B1A082B40F273810922864914A810AD14F022F884460E9506465CF866
:202CE000083B634500F032810E938368109373680022092C0F933272C6F800C0726040F21D
:202D00003881632C40F2C480B4F57A7FC0F04D8142F20F739C4240F24681224601216D4E03
:202D20006D48DFF8B8C1DFF8C881DFF8C89108E0634540F2C2804345C0F0C8804B4540F2F8
:202D4000F9801346A6FB02E28E46043183424FEA5232EDD820A822AE0022DFF89CA1069068
:202D60004FF06409209613F004FF219A42F20F78DDF880B0013A069859495A44AAFB04C3EB
:202D8000A646023A5B09C64509FB134C1C4601EB4C0311F81CC05B7882F801C09370EDD8E1
:202DA000BEF57A7F7FD230348BF800400E9BDDF83CC0AB42219A14BF10990F210CEB020424
:202DC0008C42209908D9B14214BFDDF888E04FF00F0E744540F292800EA80DF1280813F048
:202DE0009DFF8446CDF8208004465CF8083B634500F095800893A3680A93636809930023AD
:202E0000C4F800C02372049A6360384B9A4240F097800898404503D00A99013113F059FD74
:202E20002098B04203D02299013113F052FD0E98A84203D01099013113F04BFD1498B842A7
:202E400003D01699013113F044FD1A98059B984203D01C99013113F03CFD012027B0BDE8BB
:202E6000F08F1CAB02461AA80221059306901A9313F07FFEDDF868901949069801EB450383
:202E800011F815205B7889F8002089F80130FDE620A822AE02210690209613F06AFEDDF8A4
:202EA00080B00F49069801EB440311F814205B788BF800208BF8013078E70EF1050149E7BE
:202EC0000CF10501B5E60CF10601B2E60EF1060140E700BF5917B7D19F8601003F420F001E
:202EE0007486010864850108888501080106000880969800FFE0F5051F85EB510022CDF86A
:202F000000C00DF12808114613F08AFE8446CDF8208004465CF8083B63457FF46BAFC64690
:202F2000A068DCF80410DCF80820DCF80C30AEE80F0062E70EF107010CE70CF1070178E64A
:202F4000079808AA0221049B984762E7AE468068DCF80410DCF80820DCF80C30AEE80F00C1
:202F6000C5E6BC4680687168B268F368ACE80F009FE620A822AE01210690209613F0F9FD47
:202F8000DDF880B006980EE71CAB02461AA80121059306901A9313F0ECFDDDF86890069874
:202FA00071E6042145E60421D4E60321D2E603213FE6014813F0A9FC708501082DE9F0432E
:202FC000D0F8049089B012230022D9F8004004AF01A9064602A8D4F800801C4DCDE90137FE
:202FE00013F04EFD019B0446029004934FF0000EDFF85CC00FCDE360E0452B882060A260BB
:203000002382029A019B6160039302F803E018D10298B84203D00499013113F05AFC96F899
:203020006430012B02D009B0BDE8F083F06803681B6898470223B06786F8643009B0BDE85C
:20304000F08302AA48460221C047E1E7948501080106000838B500F1180504464C220021CC
:20306000284613F03FFF1049104A012328466362C4E906120CF088F928B9002128460DF0E8
:2030800093F950B938BD3321094808F009F8002128460DF089F90028F4D034210448BDE8C8
:2030A000384007F0FDBF00BF00540040A30C1020A88501082DE9F04F06469FB000270C203A
:2030C00006F1180305AC0C9703AD1097149718971C970797099313F0FEFB744B0590036039
:2030E0000C9B0D9ADFF8D8B1DFF8D8A1C0E9017694E803000AAF0793CDF834A085E80300D7
:2031000097E80300CDF830B084E8030095E80300089287E803001BB10322214620469847F0
:203120004FF000080C200DF16809CDF81C8013F0D2FB1D9A1C9B08925D4A05900793C0F8E6
:20314000048086600260CDF870B0CDF874A094E8030085E8030099E8030084E8030095E886
:20316000030089E803001BB103222146204698474FF000080C20CDF81C8013F0ACFB199A0A
:20318000189B08924B4AC0F804800DF158080590079386600260CDF860B0CDF864A094E822
:2031A000030085E8030098E8030084E8030095E8030088E803001BB103222146204698471A
:2031C00009A9002003F092FAD6F810B04FF0000A0C20DBF800301D68CDF81CA013F07BFB19
:2031E0000346354A5846DFF8E0B01A601F2105932246CDF820B0C3E901A6DFF8D0A0CDF854
:203200001CA0A847079B1BB10322214620469847356900220C202B681B680792019313F092
:203220005AFB00220146019B0591C0E90126234A28460A6022462021CDE907AB9847079BF7
:203240001BB10322214620469847002209211F200AF012FA00220A2120200AF00DFA1F2073
:203260000AF054FA20200AF051FA1C9B1BB10322494648469847189B1BB10322414640462C
:203280009847149B1BB112A9032208469847109B1BB10EA90322084698470C9B1BB10322AF
:2032A0003946384698471FB0BDE8F08F452B0008BD2F0008C92A0008D1290008D9290008CC
:2032C000612A0008412A0008E1290008012A000838B51D46049B04464160826000214C2258
:2032E000C0E90353164B183040F8183C13F0FAFD40F61802002104F1680013F0F3FD0723B5
:20330000802284F87C300023626784F86430059BB3F5006F0DD22B6828461B6898470346A5
:2033200020466361FFF796FE2046FFF7C3FE204638BD1A21034807F0B3FEE568EBE700BF55
:2033400048870108A88501082DE9F04FD0E91B788BB0044608EB0703DB09B3EBD71F03D0F1
:20336000FA090132C7EBC218D4F804B00DF11809002203A9DBF8003004A8254ED3F800A091
:203380001123CDF81090039313F07AFB039B054604904FF0000E0693DFF878C00FCEEB60EC
:2033A000E24533782860AA602B74049A039B6960059302F803E025D10498484503D00699FF
:2033C000013113F086FAA16E1FFA88F3BAB204F11800019302230091A0210CF099F968B962
:2033E000236F0120D4E91A12A3EB0803414442442367C4E91A120BB0BDE8F08F00200BB070
:20340000BDE8F08F04AA58460221D047D4E700BF2C860108010600082DE9F0471D4690F886
:20342000643088B033B903F0FF074B190E46B3F5803F03D9002008B0BDE8F08700F17D037B
:20344000044611462A4618460DF1100813F022FDD4F804903A4601A9D9F800302567D3F8E3
:2034600000A01B231A4D0193CDF80880C4E91A0602A813F005FB019B064602900493DFF8C4
:2034800054C00FCD3060E2457160B260F360029A019B03CD03937161298830613183A978C8
:2034A000B176D7540FD10298404503D00499013113F00FFA2046FFF747FF0028BAD0012395
:2034C00084F86430B7E702AA48460221D047EAE740860108010600082DE9F0430446C06860
:2034E00089B00023056804F1780194F87C206D68A84710B909B0BDE8F083D4F80490142378
:2035000004AF01A9D9F8002002A81D4ED2F800800022CDE9013713F0B3FA019B05460290C5
:2035200004934FF0000EDFF85CC00FCE2860E045AA60EB603068019B029A6960286103931D
:2035400002F803E016D10298B84203D00499013113F0BFF9236F23B984F8643009B0BDE8DA
:20356000F0832046FFF7F0FE0028C3D0012384F86430BFE702AA48460221C047E3E700BF0C
:203580005C8601080106000890F86430022B00D07047FFF7A1BF00BF10B5164C82B0164994
:2035A00001AA2046FDF710FA01AA144904F11800FDF70AFA01AA124904F13000FDF704FAD2
:2035C00001AA104904F14800FDF7FEF901AA0E4904F16000FDF7F8F901AA0C4904F1780016
:2035E000FDF7F2F90A4A0B49002002B0BDE8104013F06AB9100500202480010828800108C4
:203600003080010838800108408001084880010800000020A12A000838B5084CA4F1900538
:20362000183C234653F8080B984203D0A168013113F04FF9AC42F3D138BD00BF3006002080
:2036400038B50B4604464822002140F8043B41F6C45513F047FCA022002104F14C0013F023
:2036600041FCA022002104F1EC0013F03BFC2A46002104F5C67013F035FC41F650702A46B4
:203680000021204413F02EFC204638BD70B501230446184A081D0025498A62604FF4804244
:2036A000A560251DA061A1822846C4E907334FF40063C4E903234FF4000363620AF08AFC46
:2036C00041F65072064604F1EC012244052328460AF05CFA052304F5C67204F14C0128466E
:2036E0000AF09AFA28460AF0C9FDB6FA86F0400970BD00BF0080024008B504300AF04EFBBD
:20370000B0FA80F0400908BD006CB0F5C06F88BF00207047436803F580535A69920603D57A
:203720002021002259615A60704700BFC26B436B4AB100211A68013142F000421A60C26B76
:20374000DB688A42F6D84368002203F58053C2635969090602D5802159619A60704700BF5C
:203760002DE9F047466BD0F8449051B38A46002440F2F458BAF80A201319434524D9214645
:2037800000251C46A8EB0107DAF80400A4F2F454494428443A4613F07DFBF66844453D44F7
:2037A0004FF00001D6F80890ECD849462246DAF80400284413F06EFBDAF800A0BAF1000FCE
:2037C000D8D10020BDE8F08709EB040100251C46EDE700BF2DE9F04F046B8BB08B46A36816
:2037E0000090002900F08C80002640F2F459B0462268002A71DBBBF80A2095194D4567D91C
:20380000002702E04D45A36846D9A9EB060ADBF80410981900263944524613F03BFBE468E7
:20382000A5F2F45557442368D044B342EADA009B06AE03A904A8D3F800801A23314CD8F839
:20384000002017680022CDE9033613F019F905460490039B4FF0000EDFF8B0C0069367454D
:203860000FCC28606960EB60AA6003CC2388286169612B83039B049A059302F803E022D1A8
:203880000498B04203D00699013113F022F86FF007000BB0BDE8F08F18462E46DBF80410DB
:2038A0002A460193A844394413F0F4FADBF800B0019BBBF1000F9BD10098414604300AF017
:2038C000E9F90020E5E704AA04214046B847D7E7981900272E461546E0E7009B06AE03A99B
:2038E00004A8D3F800801A23074CD8F8002017680022CDE9033613F0C3F805460490A8E795
:203900008846D9E774870108588701080106000804300AF08FBA00BF09F078BE704700BF43
:20392000704700BF704700BF10B5022388B0002403210B2204938623204807920393CDE977
:20394000054103A90AF068FF4FF4605303A91C4803930AF061FF322303A91A4803930AF02B
:203960005BFF042303A9184803930AF055FF224601213D2009F080FE3D2009F0C7FE134BFF
:203980001A6B42F000721A631A6B02F000720092009A1A6B42F080621A631A6B02F08062FD
:2039A0000192019A1A6B42F000621A631B6B03F000630293029B08B010BD00BF00000240AF
:2039C0000004024000080240001802400038024010B5164C82B0164901AA2046FCF7F4FFD4
:2039E00001AA144904F11800FCF7EEFF01AA124904F13000FCF7E8FF01AA104904F148008C
:203A0000FCF7E2FF01AA0E4904F16000FCF7DCFF01AA0C4904F17800FCF7D6FF0A4A0B49D0
:203A2000002002B0BDE8104012F04EBFA00500202480010828800108308001083880010813
:203A4000408001084880010800000020193600080520704738B5084CA4F19005183C234651
:203A600053F8080B984203D0A168013112F031FFAC42F3D138BD00BFC006002010B4044C6E
:203A80000022C0E9004182605DF8044B704700BFB88701082DE9F04F062391B004468068E5
:203AA00000210AAA03820AF003FA002840F0D5809DF82880A8F19509B9FA89F94FEA5919B4
:203AC000A06806230AAA012103820AF0F1F9002840F0BE809DF828502D09062D14BF4FF058
:203AE000000909F001090395D4F804A0B8F1090FDAF800301B68029340F2DB80B8F1630F2F
:203B000040F2948004AE06AF2D2203213046049713F02FF86C4B6D49A3FB082364225B092A
:203B200002FB13829846049B01EB420011F812205A7042789A7008F1300883F80080002231
:203B40000F2330460DF1300800931146604B13F067F88646CDF8288084465EF8083B73453C
:203B600000F09C800A9383680C93DCF80430DFF868B10B930023CCF800E0CCF804308CF839
:203B80000830029B5B4577D10A98404503D00C99013112F09EFE0498B84203D006990131BF
:203BA00012F097FE6468092D2368D3F800A059D92D2202213046049712F0DBFF434ADDE992
:203BC000030302EB400112F810201A704A785A7000220D233046009311463E4B13F020F80B
:203BE0000646CDF82880054656F8083BB3424DD00A9383680C936B68DA450B934FF0000325
:203C00002E606B602B723CD10A98404503D00C99013112F05EFE0498B84203D00699013138
:203C200012F057FE484611B0BDE8F08F04AE06AF2D2202213046049712F09BFF234A049B28
:203C400002EB480112F818201A704A785A7076E70F254FF00009039546E74FF000094FF0B1
:203C6000FF082DE72D22012130463035049712F080FF049B1D70ABE750460AAA02219847B7
:203C800082E70AAA20460221D047BDE7C44680687168B268F368ACE80F00ACE7C34680685C
:203CA000DEF80410DEF80820DEF80C30ABE80F005BE704AE06AF2D2201213046049712F03B
:203CC00058FF049B37E700BF1F85EB515080010890870108A08701080106000870B58160F3
:203CE0000546FFF7D7FE044608B9204670BD0626A8680022314606820AF024F9A868012269
:203D0000068211460AF01EF9204670BD10B5164C82B0164901AA2046FCF756FE01AA144908
:203D200004F11800FCF750FE01AA124904F13000FCF74AFE01AA104904F14800FCF744FE59
:203D400001AA0E4904F16000FCF73EFE01AA0C4904F17800FCF738FE0A4A0B49002002B0CD
:203D6000BDE8104012F0B0BD300600202480010828800108308001083880010840800108E8
:203D80004880010800000020553A00080020704784464FF4905208B50B4600211846CCF884
:203DA00008300AF0CFF8012008BD00BF38B5084CA4F19005183C234653F8080B984203D032
:203DC000A168013112F085FDAC42F3D138BD00BF5007002010B4044C0022C0E90041826045
:203DE0005DF8044B704700BFC887010810B5164C82B0164901AA2046FCF7E6FD01AA1449AA
:203E000004F11800FCF7E0FD01AA124904F13000FCF7DAFD01AA104904F14800FCF7D4FDCB
:203E200001AA0E4904F16000FCF7CEFD01AA0C4904F17800FCF7C8FD0A4A0B49002002B0CE
:203E4000BDE8104012F040BDC00600202480010828800108308001083880010840800108E7
:203E60004880010800000020AD3D000810B500F5405494F8C830082B16D003F20D3E43F2FF
:203E8000CC0C00EB0E1E8EF8043000EB031E4EF80C100CEB031C43F2D001013360444EF8D1
:203EA000012084F8C83010BD002010BD70B579B30C7A43F2CC0200EB041C6244914202D083
:203EC0000024204670BD221D50F8221001B340F20C6606FB04F28518B5F83246002CF0D075
:203EE00002F13004B5F8362604441A80049BD5F83806214618600598B5F8322612F0CAFFBA
:203F0000324600212046B5F8324612F0EBFFD8E70C46204670BD00BF10F0B6BF38B5084C78
:203F2000A4F19005183C234653F8080B984203D0A168013112F0CDFCAC42F3D138BD00BF23
:203F4000E00700202DE9F04F00F54055064693B0D5F84C01FFF7D8FB766809280446336815
:203F60001B68039340F2CF80632840F28B80B0F57A7FC0F0D88042F20F73984240F2D18026
:203F800002460121694F6A48DFF8B4C1DFF8B481DFF8B49108E0634540F29B804345C0F0C4
:203FA0009B804B4540F29B801346A7FB02E28E46043183424FEA5232EDD806A808AB002257
:203FC000DFF888A105904FF06409049342F20F78069312F0CEFD079AA4465649013ADDE9BD
:203FE000050B5A44AAFB0C736746023A5B09474509FB13CE9C4601EB4E0311F81EE05B7838
:2040000082F801E09370EDD8B7F57A7F48D20CF1300C8BF800C0002225230DF13808009307
:204020001146454B12F0FCFD8446CDF8308007465CF8083B63455BD00C9383680E937B689A
:20404000039A0D930023C7F800C07B603B723B4B9A4247D10C98404503D00E99013112F0A8
:2040600038FC0698049B984203D00899013112F030FCFCB9D5F84C01FFF758FB204613B0E0
:20408000BDE8F08F06A808AB0221002205900493069312F06EFDDDF818B0A4462549059892
:2040A00001EB4C0311F81C205B788BF800208BF80130B0E7A1B24FF4C17200200DF074FB6A
:2040C00004460028D6D00146D5F84C01FFF748FBD0E70EF1050170E70EF106016DE70EF1C2
:2040E00007016AE730460CAA0121039B9847B1E7C6468068DCF80410DCF80820DCF80C301C
:20410000AEE80F009BE706A808AB0022012105900493069312F02DFDDDF818B0A4460598BE
:2041200075E7042149E7032147E700BF5917B7D19F86010074860108D0870108010600082D
:204140003F420F0080969800FFE0F5051F85EB512DE9F04F00F540568FB00446D6F84C01E4
:20416000FFF738FB051E03D128460FB0BDE8F08F6768B4BFC5F10009A946C5F3C01B3B68A8
:20418000B9F1090FD3F8008040F28380B9F1630F58D90DF1080A04AC2D220BF103015046EB
:2041A000029412F0E6FC434B64204349A3FB0923029A5B09934400FB1393312001EB430C19
:2041C00011F813209CF801308BF801208BF802308BF800000022182350460DF1280900934D
:2041E0001146364B12F01CFD8646CDF8209084465EF8083B734541D0089383680A93DCF868
:20420000043009930023CCF800E0CCF804308CF808302B4B98452CD10898484503D00A9960
:20422000013112F056FB0298A04203D00499013112F04FFBD6F84C01FFF76CFA28460FB0EB
:20424000BDE8F08F0DF1080A04AC2D220BF102015046029412F08DFC174A029B02EB490140
:2042600012F81920487803EB0B01487003F80B20B0E7384608AA0421C047CDE7CA468068C4
:20428000DEF80410DEF80820DEF80C30AAE80F00B5E70DF1080A04AC2D220BF10101504644
:2042A000029412F066FC09F13003029AD8B293448EE700BF1F85EB5150800108F887010865
:2042C00001060008054B186820B109B1FFF740BF084670476FF00A00704700BFE007002094
:2042E0002DE9F0470C468EB0002930D00A7A43F2CC03054600EB02120020134499422AD09A
:204300000EB0BDE8F087D5F8048042240AAD0246D8F8003002A908A81F680895029412F0F6
:20432000AFFB029B224682490A93089012F0B2FD029B089A0993D6547E4B9F4240F0E380DB
:204340000898A84203D00A99013112F0C2FA00200EB0BDE8F08710F097FA06460028D2D0CC
:20436000437A0022744943F02003437210F0D2F8B0F1000A61D06F68B4BFCAF1000454464D
:20438000CAF3C0193B68092CD3F8008040F2C080632C40F28C800DF1200A0AAD2D2209F1FD
:2043A00003015046089512F0E4FB644B64206449A3FB0423089A5B09914400FB134301EB28
:2043C000430211F8133089F80130537889F80230312389F800300022462350460DF11009DF
:2043E00000931146574B12F01BFC8446CDF8089004465CF8083B63457AD002938368049307
:20440000636803930023C4F800C063602372494B984568D10298484503D00499013112F0CF
:2044200058FA0898A84203D00A99013112F051FA304610F00BFA002062E72246304642495E
:2044400010F000FA237A6F685246043302A908A83E4C45F823600AAD3B68D3F800801F2393
:204460000895029312F00CFB029B064608900A93DFF8C0C00FCC3060E0457160B260F360C6
:2044800007CC23883061B383A3787161B261B377029B089A099302F803A01FD10898A842BB
:2044A00003D00A99013112F014FA012028E70DF1200A0AAD2D2209F102015046089512F0B4
:2044C00058FB1F4A089B02EB440112F81420487803EB0901487003F809207CE708AA012142
:2044E0003846C047DAE7384602AA0121C04791E7CE468068DCF80410DCF80820DCF80C30BB
:20450000AEE80F007CE708AA04214046B84717E70DF1200A0AAD2D2209F1010150460895DC
:2045200012F027FB04F13003089ADBB2914450E77C88010801060008649C01081F85EB51EF
:2045400050800108348801082D5E0008148801082DE9F04F0C46A3B041B1097A43F2CC0312
:20456000064600EB01110B449C4203D0002023B0BDE8F08F0020904610F086F907460028F1
:2045800000F09781424642490FF0C4FF0546002840F08A80384622463E4910F053F9237A3B
:2045A0007568043346F8237046462B68092EA4F80A801F6840F2EB82632E40F23982B8F549
:2045C0007A7FC0F00A8342F20F73984540F2F7820DF170081EAC2D22052140461C944FF03D
:2045E000040912F0C6FADDF870C00CEB09022A4BDFF8B0A04FF0640942F20F7EAAFB060130
:20460000B346023A4909F34509FB11600E4603EB400113F81000497850709170EED8BBF5D0
:204620007A7F80F0118230368CF800601C23002240460DF1600900931146184B12F0F0FAAD
:204640008446CDF8589006465CF8083B634500F06982169383681893736817930023C6F8D8
:2046600000C0736033720E4B9F4240F040821698484503D01899013112F02BF91C98A04229
:2046800003D01E99013112F024F901206FE700BF649C01082D5E000850800108C088010843
:2046A000010600081F85EB517368648903931B68092C1B68029340F27682632C40F2A281CF
:2046C000B4F57A7FC0F09B8242F20F739C4240F288820DF1400812AE2D22052140461096F4
:2046E0004FF0040912F045FADDF840E00EEB0902BE4BDFF804B34FF0640A42F20F79ABFB8E
:2047000004012046023A490948450AFB114C0C4603EB4C0113F81CC0497882F801C0917040
:20472000EDD8B0F57A7F80F0798130348EF800400022252340460DF1300A00931146AC4B79
:2047400012F06EFA8446CDF828A004465CF8083B634500F0DC810A9383680C9363680B9332
:204760000023C4F800C063600B9A23726FF040439B1A1D2B40F261821E229E490AA80DF1D2
:20478000600912F0CBFA8446CDF8589004465CF8083B634500F0B08116938368189385EA1A
:2047A000E57B6368ABEBE57B17930023C5F3C015BBF1090FC4F800C06360237240F2D8815B
:2047C000BBF1630F40F24A810DF170081EAC2D22E91C40461C9412F0CCF9874B1C98A3FB09
:2047E0000B23642205445B0902FB13BB7F4B03EB4B0213F81B306B705378AB7031232B7082
:20480000169B179D4B451D9A14BF18990F21A81888421C9908D9A14214BFDDF878C04FF016
:204820000F0C604540F2418116A80DF1180812F075FA8446CDF8108005465CF8083B6345CE
:2048400000F044810493AB6806936B6805930023C5F800C02B72029A6B60684B9A4240F092
:2048600040810498404503D00699013112F031F81C98A04203D01E99013112F02AF8169863
:20488000484503D01899013112F023F80A98504503D00C99013112F01CF81098B04203D054
:2048A0001299013112F015F838460FF0CFFF00205DE67568B4F80A902B68B9F1090F1F685F
:2048C00040F2A181B9F1630F40F2DC80B9F57A7FC0F0A48142F20F73994540F2AC810DF16D
:2048E00070081EAC2D22052140461C9412F041F91C9E042232443D4BDFF8FCA04FF0640E8D
:2049000042F20F7CAAFB0901CB46023A4909E3450EFB1190894603EB400113F810004978DE
:2049200050709170EED8BBF57A7F80F0B68009F1300986F800902523002240460DF1600909
:20494000009311462A4B12F06BF98446CDF8589006465CF8083B634500F0FF80169383688D
:204960001893736817930023C6F800C0736033726FF04043179A9B1A192B40F25E811A2215
:204980001F4916A812AE12F0C9F98646109684465EF8083B734500F0D58010938368129368
:2049A000DCF8043011930023CCF800E0CCF804308CF80830114B9F4240F0BF801098B0428A
:2049C00003D01299013111F084FF1698484503D01899013111F07DFF1C98A0423FF4C6ADF9
:2049E0001E99013111F075FFC0E500BF50800108E08801085C8801081F85EB5101060008CF
:204A0000A48801080DF1400812AE2D2202214046109612F0AEF8DDF840E0894B03EB440218
:204A200013F814308EF8003053788EF801307FE60DF170081EAC2D22022140461C9412F0A0
:204A400098F8DDF870C07E4B03EB460213F816308CF8003053788CF80130E7E50DF17008FB
:204A60001EAC2D22A91C40461C9412F082F8744A1C9B02EB4B0112F81B20487859194870C9
:204A80005A55BDE60DF170081EAC2D22022140461C9412F06EF81C9E694B03EB490213F8C2
:204AA000193033705378737045E70022404600950DF11808114612F0B3F88446CDF81080B2
:204AC00005465CF8083B63457FF4BCAEC646A868DCF80410DCF80820DCF80C30AEE80F00BA
:204AE000B3E6039804AA0421029B9847B9E616AA28460121B847BAE5CE468068DCF80410C2
:204B0000DCF80820DCF80C30AEE80F0047E6D6468068DCF80410DCF80820DCF80C30AEE829
:204B20000F001BE6CE468068DCF80410DCF80820DCF80C30AEE80F008EE5284610AA042110
:204B4000B8473BE7B0468068DEF80410DEF80820DEF80C30A8E80F0022E7CE468068DCF8E4
:204B60000410DCF80820DCF80C30AEE80F00F8E60DF170081EAC2D22691C40461C9411F047
:204B8000F8FF0BF130031C9ADBB2154437E60DF170081EAC2D22012140461C9411F0E9FF66
:204BA000DDF870C03FE50DF1400812AE2D2201214046109611F0DDFFDDF840E0B5E54FF07E
:204BC000030904210DF170081EAC2D2240461C9411F0CFFFDDF870C007E54FF002090321B1
:204BE000F0E74FF0030904210DF1400812AE2D224046109611F0BDFFDDF840E076E54FF0A1
:204C000002090321F0E70DF170081EAC2D22012140461C9411F0ADFF1C9E88E603260DF1AB
:204C200070081EAC2D22314640461C9411F0A1FF721E1C9E5EE60426F1E7024811F065FE57
:204C400050800108708501082DE9F04F93B0BDF8744049B18046087A154643F2CC0208EBE9
:204C600000163244914204D00025284613B0BDE8F08F043058F82060002EF5D04FF4C1721A
:204C8000194600209A46DDF870900CF08DFD074658B1294652460CF063FF0546002876D0E6
:204CA000002538460CF0D8FEDFE7D8F80460092CA14633681F6840F2C581632C40F2EF809F
:204CC000B4F57A7FC0F0AF8142F20F739C4240F2CA8106AC08AD2D2205212046069511F063
:204CE00048FFDDF818C004226244BF4BDFF808A34FF0640842F20F7EAAFB0901CB46023A00
:204D00004909F34508FB1190894603EB400113F81000497850709170EED8BBF57A7F80F0EB
:204D2000C98009F130098CF800903C23002220460EAC00931146AD4B11F072FF86460C9482
:204D400084465EF8083B734500F0C3800C9383680E93DCF804300D930023CCF800E0CCF8A7
:204D600004308CF80830A24B9F4240F0AD800C98A04203D00E99013111F0ABFD0698A842B5
:204D80003FF472AF0899013111F0A3FD6CE7224605A93046CDF814900FF01AFD002880D174
:204DA000394630460FF00AFDD8F80430A04603931B681B680293002840F09680092C40F208
:204DC0008E81632C40F21A81B4F57A7FC0F0A18142F20F739C4240F28D8106AC08AD2D226A
:204DE00005212046069511F0C4FEDDF818E0042272447D4BDFF800B24FF0640A42F20F7966
:204E0000ABFB0801C446023A4909CC450AFB1180884603EB400113F810004978507091700A
:204E2000EED8BCF57A7F80F0F48008F130088EF800800022172320460EAC009311466D4BC9
:204E400011F0EEFE86460C9484465EF8083B734500F01D810C9383680E93DCF80430029A81
:204E60000D930023CCF800E0CCF804308CF808305F4B9A4240F0F1800C98A04203D00E99F0
:204E8000013111F026FD0698A84203D00899013111F01FFD012530460FF0CAFC01E706AC76
:204EA00008AD2D2202212046069511F062FEDDF818C04D4B03EB490213F819308CF80030E3
:204EC00053788CF8013030E70CAA30460421B8474DE7A0468068DEF80410DEF80820DEF82B
:204EE0000C30A8E80F0034E7092C40F2ED80632C64D9B4F57A7FC0F0E48042F20F739C42D2
:204F000040F2D08006AC08AD2D2205212046069511F02FFEDDF818E004227244324BDFF807
:204F2000D8B04FF0640A42F20F79ABFB0801C446023A4909CC450AFB1180884603EB400195
:204F400013F81000497850709170EED8BCF57A7F3FD208F130088EF800800022172320463A
:204F60000EAC00931146234B11F05AFE86460C9484465EF8083B73457ED00C9383680E93C6
:204F8000DCF80430029A0D930023CCF800E0CCF804308CF80830164B9A4267D10C98A04257
:204FA00003D00E99013111F094FC0698A84203D00899013111F08DFC00256CE706AC08AD1D
:204FC0002D2202212046069511F0D3FDDDF818E0054B03EB480213F818308EF80030537864
:204FE0008EF80130B9E700BF508001080889010801060008488901081F85EB5106AC08ADF8
:205000002D2202212046069511F0B3FDDDF818E0414B03EB480213F818308EF80030537807
:205020008EF8013005E74FF0030806AC08AD2D2241462046069511F09CFD08F1FF32DDF8AC
:2050400018C051E606AC08AD2D2201212046069511F08FFDDDF818C063E603980CAA012172
:20506000029B984708E74FF00408DEE703980CAA0121029B984791E7A0468068DEF8041096
:20508000DEF80820DEF80C30A8E80F0078E7A0468068DEF80410DEF80820DEF80C30A8E8AA
:2050A0000F00DAE64FF0040906AC08AD2D2249462046069511F05DFD09F1FF32DDF818E03C
:2050C0002BE74FF00309EFE706AC08AD2D2201212046069511F04DFDDDF818E039E706ACDA
:2050E00008AD2D2201212046069511F042FDDDF818E09AE64FF0040906AC08AD2D2249466B
:205100002046069511F035FD09F1FF32DDF818E06EE64FF00309EFE7508001082DE9F04FC0
:2051200091B0BDF8685049B10646087A904643F2CC0206EB00142244914204D0002528467B
:2051400011B0BDE8F08F043056F82040002CF5D04FF4C1721946002099460CF025FB07465A
:2051600050B14A4641460CF0FBFC002872D0002538460CF071FCE2E77768092D2C463B68BB
:20518000D3F8008040F22083632D40F2F180B5F57A7FC0F0078342F20F739D4240F2118384
:2051A00004AD06AE05212D222846049611F0E1FCDDF810C004216144BC4ADFF80CA34FF0F5
:2051C000640942F20F7EAAFB0403A34602395B09F34509FB13401C4602EB400312F8100032
:2051E0005B7848708B70EED8BBF57A7F80F0CB8030348CF800404423002228460CAD009394
:205200001146AB4B11F00CFD84460A9504465CF8083B634500F05A810A9383680C93636888
:205220000B930023C4F800C063602372A14B984540F022810A98A84203D00C99013111F006
:2052400048FB0498B0423FF479AF0699013111F040FB73E72A46984920460FF0B9FA00282A
:2052600040F09B802B46954A394620460FF07CFA7368A84603931B681B680293002800F027
:205280003081031D00F03A82013000F09E81092D40F21083632D40F20782B5F57A7FC0F0B8
:2052A0002A8342F20F739D4240F2348304AD06AE2D2205212846049611F05BFCDDF810E0C4
:2052C00004237344794ADFF800B24FF0640A42F20F79ABFB0801C446023B4909CC450AFBDD
:2052E0001180884602EB400112F81000497858709970EED8BCF57A7F80F0E18108F1300802
:205300008EF800800022252328460CAD009311466B4B11F085FC86460A9584465EF8083B06
:20532000734500F089820A9383680C93DCF80430029A0B930023CCF800E0CCF804308CF80E
:2053400008305C4B9A4240F050820A98A84203D00C99013111F0BDFA0498B04203D00699A2
:20536000013111F0B6FA002520460FF061FAFFE604AD06AE2D2202212846049611F0F9FBAC
:20538000DDF810C0494A02EB440312F814205B788CF800208CF801302DE7D6F80480092D9B
:2053A0002C46D8F800301B68029340F26682632D67D9B5F57A7FC0F07A8242F20F739D4295
:2053C00040F2668204AD06AE2D2205212846049611F0CFFBDDF810E004237344334ADFF80F
:2053E000E8B04FF0640A42F20F79ABFB0401A446023B4909CC450AFB11400C4602EB4001A1
:2054000012F81000497858709970EED8BCF57A7F42D230348EF800400022212328460CADA5
:2054200000931146274B11F0FBFB84460A9504465CF8083B634500F02C810A9383680C9363
:205440006368029A0B930023C4F800C063602372184B9A4240F0B3800A98A84203D00C99AA
:20546000013111F036FA0498B0423FF480AE0699013111F02EFA7AE60AAA38460421C04722
:20548000D8E604AD06AE2D2202212846049611F070FBDDF810E0054A02EB440312F814207D
:2054A0005B788EF800208EF80130B5E7508001086089010801060008649C0108689C010830
:2054C000348A01085C8A01081F85EB51AE468068DCF80410DCF80820DCF80C30AEE80F00C1
:2054E0009DE6092D40F2F181632D40F2F280B5F57A7FC0F0338242F20F739D4240F21F82AB
:2055000004AD06AE2D2205212846049611F031FBDDF810E004237344C14ADFF818B34FF0ED
:20552000640A42F20F79ABFB0801C446023B4909CC450AFB1180884602EB400112F810003C
:20554000497858709970EED8BCF57A7F80F0CC8008F130088EF8008000221E2328460CADCC
:2055600000931146AF4B11F05BFB86460A9584465EF8083B734500F06A810A9383680C9368
:20558000DCF80430029A0B930023CCF800E0CCF804308CF80830A44B9A4240F020810A9810
:2055A000A84203D00C99013111F093F90498B04203D00699013111F08CF90125D4E64046AC
:2055C0000AAA0121029B984746E7092D40F28881632D40F2D280B5F57A7FC0F0AD8142F212
:2055E0000F739D4240F2998104AD06AE2D2205212846049611F0BDFADDF810E004237344C1
:20560000874ADFF830B24FF0640A42F20F79ABFB0801C446023B4909CC450AFB11808846DA
:2056200002EB400112F81000497858709970EED8BCF57A7F80F0AC8008F130088EF800804D
:205640003B23284600220093784B11460CAD11F0E7FA86460A9584465EF8083B734500F09E
:2056600001810A9383680C93DCF804300B930023CCF800E08CF80830029ACCF804306A4B0F
:205680009A423FF462AE03980AAA0421029B98475BE6AE468068DCF80410DCF80820DCF826
:2056A0000C30AEE80F00CBE604AD06AE2D2202212846049611F05DFADDF810E0584A02EBCD
:2056C000480312F818205B788EF800208EF8013018E604AD06AE2D2202212846049611F02F
:2056E00048FADDF810E04E4A02EB480312F818205B788EF800208EF801302DE7092D40F2E5
:205700003081632D77D9B5F57A7FC0F0448142F20F739D4240F2308104AD06AE2D2205218E
:205720002846049611F025FADDF810E0042373443B4ADFF800B14FF0640A42F20F79ABFB82
:205740000801C446023B4909CC450AFB1180884602EB400112F81000497858709970EED892
:20576000BCF57A7F52D208F130088EF800802F232846002200932E4B67E704AD06AE2D2234
:2057800002212846049611F0F4F9DDF810E0244A02EB480312F818205B788EF800208EF844
:2057A00001304DE74FF0030904AD06AE49462D222846049611F0DDF909F1FF31DDF810C048
:2057C000F9E44FF00409EFE704AD06AE2D2201212846049611F0CDF9DDF810C008E50398F8
:2057E0000AAA0121029B9847D9E603980AAA0121029B9847A9E504AD06AE2D2202212846D8
:20580000049611F0B6F9DDF810E0054A02EB480312F818205B788EF800208EF80130A6E7F3
:2058200050800108A889010801060008F8890108C88901081F85EB51A8468068DEF80410C2
:20584000DEF80820DEF80C30A8E80F006EE5A8468068DEF80410DEF80820DEF80C30A8E8E6
:205860000F008DE6A8468068DEF80410DEF80820DEF80C30A8E80F00F6E604AD06AE2D22A7
:2058800001212846049611F074F9DDF810E0C0E54FF0040904AD06AE2D224946284604966F
:2058A00011F067F909F1FF33DDF810E095E54FF00309EFE704AD06AE2D220121284604961D
:2058C00011F057F9DDF810E018E504AD06AE2D2201212846049611F04CF9DDF810E037E6AF
:2058E00004AD06AE2D2201212846049611F041F9DDF810E0A0E64FF0030904AD06AE2D2245
:2059000049462846049611F034F909F1FF33DDF810E0D6E44FF00409EFE74FF0040904ADF8
:2059200006AE2D2249462846049611F022F909F1FF33DDF810E062E64FF00309EFE74FF018
:20594000040904AD06AE2D2249462846049611F010F909F1FF33DDF810E0DCE54FF00309E8
:20596000EFE704AD06AE2D2201212846049611F000F9DDF810E0F6E64FF0040904AD06AE27
:205980002D2249462846049611F0F3F809F1FF33DDF810E0CBE64FF00309EFE7F8B51F4660
:2059A000079B00F540560025426004468360069A0F4BC1602946036006F1CC00C6F8C42074
:2059C000802286F8C85011F08DFA2946202204F11000C6F84C7111F085FA43F26002294650
:2059E00004F1300011F07EFA024B20461C60F8BD108B0108E00700202DE9F041054643F2B3
:205A0000900488B0002705F540560BF073FB2C44DFF85CE0D6F8C45007ABDFF858C006AAE4
:205A2000D5F8008005A92046CDF81480D5F80A80D5F80E500097CDF818800795CDE901CE15
:205A40000BF088FD50B120460BF0E2FD96F8BD3020465B0705D50BF0E1FD012008B0BDE811
:205A6000F0810BF0F5FD012008B0BDE8F08100BF015C0108315C00082DE9F0430746664BD8
:205A800089B0664E7C684FF00C0E04AD4FF0000C93E8070023681B68B34285E80700CDF822
:205AA0000CE08DF81CC002956BD107F5405447F27343A4F8BE305A4BD4F8C410C4F8A430E8
:205AC000584BD4F84C01C4F8A830FDF7DFFD38B394F8BDC043F2B602D4F8C4004CF00403F2
:205AE0003A4484F8BD30062384F8BC30031D0A3013F8011B984202F8011BF9D14CF00E0C9D
:205B0000D4F84C1140F2DC5284F8BDC00431B86803681B68A4F8B4209847044600283CD1F2
:205B2000D7F80490002201A902A8D9F800303E4FD3F8008015230295019310F0A1FF019B14
:205B4000044602904FF0000C0493B0450FCF2060E36038683B796160A26020612375019B25
:205B6000029A039302F803C04BD10298A84203D00499013110F0ADFE0024204609B0BDE861
:205B8000F083204602AA012198470298A8428CD00499013110F09DFE87E7D7F8049015232C
:205BA000002201A9D9F80000D0F8008002A8CDE9013510F065FF019BDFF870C00746029084
:205BC0004FF0000E0493B045BCE80F003860FB60DCF800009CF804307960BA6038613B756E
:205BE000019B029A039302F803E00FD10298A842C3D00499013110F06CFE204609B0BDE806
:205C0000F08302AA04214846C047AEE702AA48460221C047EAE700BF808A01080106000800
:205C2000193F0008C5420008A88A0108908A010808B5054B186810B1FFF71EFF08B100205D
:205C400008BD6FF00C0008BDE00700202DE9F04F91B01546BDF8689051B11F460B7A0C466C
:205C600043F2CC0200EB031106460A44944205D0284611B0BDE8F04F0BF0EEBE40F20C687D
:205C80002A89284608FB03F8002308F1300131440BF030FF06EB0803A3F832066289A3F8A4
:205CA0003696A3F834263A7883F838267A7883F83926BA7883F83A26FA7883F83B26D6F8A3
:205CC00004806489D8F80030092C1B68039340F28980632C63D9B4F57A7FC0F09B8042F25E
:205CE0000F739C4240F2898004AE06AF2D220521304604974FF0040910F03BFFDDF810E0D1
:205D00000EEB09034548DFF820B14FF0640A42F20F79ABFB0412A446023B5209CC450AFB8C
:205D20001241144600EB410210F81110527859709A70EED8BCF57A7F3CD230348EF800401A
:205D400000221B2330460DF1300900931146344B10F066FF0646CDF82890044656F8083BC4
:205D6000B34237D00A9383680C936368039A0B9300232660636023722A4B9A4224D10A9811
:205D8000484503D00C99013110F0A3FD0498B8423FF46EAF0699013110F09BFD68E704AEDC
:205DA00006AF2D2202213046049710F0E2FEDDF810E01A4800EB440310F814205B788EF8DD
:205DC00000208EF80130BBE740460AAA0121039B9847D4E7CC4680687168B268F368ACE8DA
:205DE0000F00C2E704AE06AF2D2201213046049710F0BFFEDDF810E09FE74FF0030904218A
:205E000004AE06AF2D223046049710F0B2FEDDF810E075E74FF002090321F1E750800108CB
:205E2000C08A0108010600081F85EB51064930B40C68BDF808502CB101460295204630BC5F
:205E4000FFF704BF30BC7047E00700202DE9F04700F540568EB00446D6F84C01FDF74CFC28
:205E600060B12046FEF76EF8054638B143F29001D6F8A03021449847031E04D10EB0BDE81B
:205E8000F0470EF047BA6668B4BFC3F100089846C3F3C01A3268B8F1090F17687FD9B8F186
:205EA000630F55D90DF1080904AC0AF103012D224846029410F05DFE414B6420029AA3FB6C
:205EC0000813404952445B0900FB138301EB430C11F8130031239CF80110507091701370FF
:205EE0000022282348460DF1280800931146364B10F096FE8646CDF8208084465EF8083BE6
:205F0000734541D0089383680A93DCF8043009930023CCF800E0CCF804308CF808302B4B00
:205F20009F422CD10898404503D00A99013110F0D0FC0298A04203D00499013110F0C9FC07
:205F400028460BF089FD0EB0BDE8F0470EF0E2B90DF1080904AC2D220AF1020148460294EF
:205F600010F007FE174A029B02EB480112F81820487803EB0A01487003F80A20B0E7304603
:205F800008AA0421B847CDE7C1468068DEF80410DEF80820DEF80C30A9E80F00B5E70DF154
:205FA000080904AC2D220AF101014846029410F0E0FD08F13003029ADBB252448FE700BFB3
:205FC0001F85EB5150800108DC8A010801060008044B1B682BB103F54053D3F84C01FDF745
:205FE00097BC7047E007002010B5164C82B0164901AA2046FAF7E8FC01AA144904F11800DD
:20600000FAF7E2FC01AA124904F13000FAF7DCFC01AA104904F14800FAF7D6FC01AA0E49B7
:2060200004F16000FAF7D0FC01AA0C4904F17800FAF7CAFC0A4A0B49002002B0BDE81040BB
:2060400010F042BC5007002024800108288001083080010838800108408001084880010859
:20606000000000201D3F0008002201234FF0FF31428680F8343080F83030C0E909127047F0
:2060800038B5084CA4F19005183C234653F8080B984203D0A168013110F01BFCAC42F3D1C9
:2060A00038BD00BF7408002082B0844610B50DF1080E4160214C4EF8043F0CF10C03CCF854
:2060C00000400024CCF808200CF114029EE803000CF11C0E83E8030005A903C982E8030058
:2060E00007A903C98EE80300DCF814100120ACF8324001F178418CF834008CF830004FF026
:20610000FF30B1F5001FCCF82400CCE90A440CD30B480C49CCE9050192E8030083E8030073
:20612000BDE81040604602B07047DCF8181001F17841B1F5001FEBD2F2E700BF988B01086E
:2061400000000408FFFF1F0810B50446806882B0036801915B68984701990220D4E90923A1
:2061600008F01EFAA36804461A681846D3689847B4FA84F0400902B010BD00BF10B590F8CA
:2061800030402CB108F0BAF908F0D4F9204610BD438E0422C16AFFF7D7FF044608F0AEF938
:2061A00008F0C8F9204610BD2DE9F04F436893B00929074605930E461B6804921B68039313
:2061C00040F2B480632940F28880B1F57A7FC0F0C68042F20F73994240F2B48006AC08ADA0
:2061E0002D220521204606954FF0040910F0C1FCDDF8188008EB0903B4465B494FF0640A69
:20620000DFF870B142F20F79ABFB0C026046023B520948450AFB12CE944601EB4E0211F847
:206220001EE0527883F801E09A70EDD8B0F57A7F5FD20CF1300C88F800C000220723204671
:206240000DF1380800931146484B10F0E9FC8646CDF8308084465EF8083B73455BD00C9378
:2062600083680E93DCF80430039A0D930023CCF800E0CCF804308CF808303D4B9A4242D15B
:206280000DF130090C98404503D00E99013110F020FB0698A84203D00899013110F019FB95
:2062A000049BB8689A1B0E96036801325B680F9200220C920222109298472146484608F072
:2062C00041FABB6804461A681846D3689847B4FA84F0400913B0BDE8F08F06AC08AD022140
:2062E0002D222046069510F044FCDDF81880B4461D4901EB4C0311F81C205B7888F800204E
:2063000088F8013099E70DF1300905980221039B4A469847B6E7C1468068DEF80410DEF8FC
:206320000820DEF80C30A9E80F009BE706AC08AD2D2201212046069510F01BFCDDF81880A4
:20634000B44676E74FF00309042106AC08AD2D222046069510F00DFCDDF818804AE74FF0D9
:2063600002090321F1E700BF50800108288B0108010600081F85EB512DE9F0470546006AD1
:206380001E468242EB698CBF002701279A4238BF002717B93846BDE8F08700295DD005F137
:2063A0001403D3E900138A4234BF4FF0000C4FF0010C9A4288BF4FF0000CBCF1000FE9D0BE
:2063C000304F00214FF000603B46884601E053F8080F82428CB201F1010103D3586882429C
:2063E00098BFA0460C29F2D157F8383095F83410D21A22F003094FEA920A02F0030499442B
:2064000071BBAB6A9A456B8E38D00422E96A2846FFF79AFE6B8E0746434508D00133424684
:20642000284699B2FFF7C0FE002808BF0027FF2385F8243085F8253085F8263085F827306D
:20644000C5F828A0A5F83280C5F82C902A19002382F8246085F830309CE705F10C03A0E79F
:20646000002385F8343008F035F808F051F8424641462846FFF798FE0746E1E74345C4D177
:206480006746E3E7308B010810B5164C82B0164901AA2046FAF798FA01AA144904F1180060
:2064A000FAF792FA01AA124904F13000FAF78CFA01AA104904F14800FAF786FA01AA0E4909
:2064C00004F16000FAF780FA01AA0C4904F17800FAF77AFA0A4A0B49002002B0BDE81040BB
:2064E00010F0F2B9E407002024800108288001083080010838800108408001084880010874
:20650000000000208160000872B6704762B6704707F02AB910B5002482B060B201340190F7
:2065200007F008F9019807F047F96E2CF5D102B010BD00BFF0B51D46012387B0044603FA4B
:2065400002F29DF83460828000229DF8307002600592CDE90122CDE9032200F019F805957D
:20656000206026B1012E02D00223039300E00396002FA5884FF0030201A90CBF0223122320
:2065800001950492029308F047F9204607B0F0BD014B53F82100704708000020018940686F
:2065A00008B508F0DFFA003818BF012008BD00BF30B51D46012387B0044603FA02F2043087
:2065C00082800022CDE90122CDE903220592FFF7DFFF606025B1012D02D00223039300E047
:2065E00003950022238901A9CDE9013208F014F907B030BD38B50025044645600581034D22
:206600000560FFF7D5FF204638BD00BFC48B0108A1F1010201894068B2FA82F2520908F09F
:20662000B3BA00BF0189406808B508F09BFA003818BF012008BD00BF0189406808F0BEBA5C
:2066400070B51E4601230025044603FA02F20F4B86B045600281043023600195CDE902551B
:20666000CDE90455FFF794FFAE4221894FF003030CBF01221122606003950493CDE90112CA
:2066800001A908F0C9F8204606B070BDD08B010838B5154CA4F5A87554F8083C543C23B1F2
:2066A00004F14401032208469847E36B23B104F13401032208469847E36A23B104F1240175
:2066C000032208469847E36923B104F11401032208469847E3681BB1211D03220846984745
:2066E000AC42D9D138BD00BFC4090020032800D970472DE9F04F4FF05409844F0B6887B038
:2067000009FB00F980460D4647F8093009F1040A0023D1F80CB0BA440493BBF1000F00F0FB
:20672000E98002AC022204312046D847D5E903B254236E4603FB087394E80300043386E829
:20674000030093E8030084E8030096E8030083E80300DAF80830DAF80C10CAF808B0049351
:20676000CAF80C2005911BB1032221462046984709F1140A0023D5F81CB0BA440493BBF1E3
:20678000000F00F0C080022205F114012046D847D5E907B2542303FB087394E803001433D9
:2067A00086E8030093E8030084E8030096E8030083E80300DAF80830DAF80C10CAF808B01A
:2067C0000493CAF80C2005911BB1032221462046984709F1240A0023D5F82CB0BA44049378
:2067E000BBF1000F00F08D80022205F124012046D847D5E90BB2542303FB087394E8030033
:20680000243386E8030093E8030084E8030096E8030083E80300DAF80830DAF80C10CAF81A
:2068200008B00493CAF80C2005911BB1032221462046984709F1340A0023D5F83CB0BA44D6
:206840000493BBF1000F5AD0022205F134012046D847D5E90FB2542303FB087394E80300FA
:20686000343386E8030093E8030084E8030096E8030083E80300DAF80830DAF80C10CAF8AA
:2068800008B00493CAF80C2005911BB10322214620469847002309F144090493B944EB6C33
:2068A0005BB3022205F1440120469847D5E91332542000FB087794E80300443786E80300CA
:2068C00097E8030084E8030096E8030087E80300D9F80850C9F80830D9F80C300495C9F84B
:2068E0000C2005931DB1032221462046A84707B0BDE8F08F059A02AC1AE7059AD8E7059AFF
:20690000A9E7059A77E7059A44E700BF740800200B4B10B503F5A87182B004461A689442C5
